:10000000987D0120FDCF00005BE70400D1CF000008
:10001000D1CF0000D1CF0000D1CF0000D1CF000060
:1000200000000000000000000000000021C80000E7
:10003000D1CF000000000000C5C70000D1CF0000F4
:10004000A5C80000A5C80000A5C80000A5C80000FC
:10005000A5C80000A5C80000A5C80000A5C80000EC
:10006000A5C80000A5C80000A5C80000A5C80000DC
:10007000A5C80000A5C80000A5C80000A5C80000CC
:10008000A5C80000A5C80000A5C80000A5C80000BC
:10009000A5C80000A5C80000A5C80000A5C80000AC
:1000A000A5C80000A5C80000A5C80000A5C800009C
:1000B000A5C80000A5C80000A5C80000A5C800008C
:1000C000A5C80000A5C80000A5C80000A5C800007C
:1000D000A5C80000A5C80000A5C80000A5C800006C
:1000E000A5C80000A5C80000A5C80000A5C800005C
:1000F000A5C80000A5C80000A5C80000A5C800004C
:10010000A5C80000A5C80000A5C80000A5C800003B
:10011000A5C80000A5C80000A5C80000A5C800002B
:10012000A5C80000A5C80000A5C80000A5C800001B
:10013000A5C80000A5C80000A5C80000A5C800000B
:10014000A5C80000A5C80000A5C80000A5C80000FB
:04015000A5C800003E
:04015400FFFFFFFFAB
:1001580081F0004102E000BF83F0004330B54FEA70
:1001680041044FEA430594EA050F08BF90EA020FDD
:100178001FBF54EA000C55EA020C7FEA645C7FEA70
:10018800655C00F0E2804FEA5454D4EB5555B8BF93
:100198006D420CDD2C4480EA020281EA030382EA04
:1001A800000083EA010180EA020281EA0303362D96
:1001B80088BF30BD11F0004F4FEA01314FF4801C69
:1001C8004CEA113102D0404261EB410113F0004F7B
:1001D8004FEA03334CEA133302D0524263EB430332
:1001E80094EA050F00F0A780A4F10104D5F1200ED0
:1001F8000DDB02FA0EFC22FA05F2801841F100012B
:1002080003FA0EF2801843FA05F359410EE0A5F1FE
:1002180020050EF1200E012A03FA0EFC28BF4CF02F
:10022800020C43FA05F3C01851EBE37101F00045E5
:1002380007D54FF0000EDCF1000C7EEB00006EEBF2
:100248000101B1F5801F1BD3B1F5001F0CD349087C
:100258005FEA30004FEA3C0C04F101044FEA4452D3
:1002680012F5800F80F09A80BCF1004F08BF5FEA5A
:10027800500C50F1000041EB045141EA050130BD3A
:100288005FEA4C0C404141EB0101013C28BFB1F54C
:10029800801FE9D291F0000F04BF01460020B1FA97
:1002A80081F308BF2033A3F10B03B3F120020CDA6A
:1002B8000C3208DD02F1140CC2F10C0201FA0CF048
:1002C80021FA02F10CE002F11402D8BFC2F1200CAD
:1002D80001FA02F120FA0CFCDCBF41EA0C01904063
:1002E800E41AA2BF01EB0451294330BD6FEA0404AC
:1002F8001F3C1CDA0C340EDC04F11404C4F1200297
:1003080020FA04F001FA02F340EA030021FA04F3A8
:1003180045EA030130BDC4F10C04C4F1200220FAFF
:1003280002F001FA04F340EA0300294630BD21FA3D
:1003380004F0294630BD94F0000F83F4801306BF03
:1003480081F480110134013D4EE77FEA645C18BFF7
:100358007FEA655C29D094EA050F08BF90EA020F8E
:1003680005D054EA000C04BF1946104630BD91EA86
:10037800030F1EBF0021002030BD5FEA545C05D189
:100388004000494128BF41F0004130BD14F58004C8
:100398003CBF01F5801130BD01F0004545F0FE413C
:1003A80041F470014FF0000030BD7FEA645C1ABF71
:1003B800194610467FEA655C1CBF0B46024650EAA8
:1003C800013406BF52EA033591EA030F41F40021D4
:1003D80030BD00BF90F0000F04BF0021704730B55A
:1003E8004FF4806404F132044FF000054FF000012F
:1003F80050E700BF90F0000F04BF0021704730B5F0
:100408004FF4806404F1320410F0004548BF4042C4
:100418004FF000013EE700BF42004FEAE2014FEA19
:1004280031014FEA02701FBF12F07F4393F07F4FF4
:1004380081F06051704732F07F4208BF704793F0F7
:100448007F4F04BF41F40021704730B54FF460740A
:1004580001F0004521F000411CE700BF50EA01020D
:1004680008BF704730B54FF000050AE050EA0102B6
:1004780008BF704730B511F0004502D5404261EB26
:1004880041014FF4806404F132045FEA915C3FF467
:10049800D8AE4FF003025FEADC0C18BF03325FEA04
:1004A800DC0C18BF033202EBDC02C2F1200300FAB5
:1004B80003FC20FA02F001FA03FE40EA0E0021FADA
:1004C80002F11444BDE600BF70B54FF0FF0C4CF4C8
:1004D800E06C1CEA11541DBF1CEA135594EA0C0F7A
:1004E80095EA0C0F00F0DEF82C4481EA030621EAB5
:1004F8004C5123EA4C5350EA013518BF52EA0335F0
:1005080041F4801143F4801338D0A0FB02CE4FF0A1
:100518000005E1FB02E506F00042E0FB03E54FF0D1
:100528000006E1FB03569CF0000F18BF4EF0010EC9
:10053800A4F1FF04B6F5007F64F5407404D25FEAC5
:100548004E0E6D4146EB060642EAC62141EA555178
:100558004FEAC52040EA5E504FEACE2EB4F1FD0CBA
:1005680088BFBCF5E06F1ED8BEF1004F08BF5FEA38
:10057800500E50F1000041EB045170BD06F00046EA
:1005880046EA010140EA020081EA0301B4EB5C0497
:10059800C2BFD4EB0C0541EA045170BD41F480118F
:1005A8004FF0000E013C00F3AB8014F1360FDEBFB4
:1005B800002001F0004170BDC4F10004203C35DA90
:1005C8000C341BDC04F11404C4F1200500FA05F313
:1005D80020FA04F001FA05F240EA020001F00042B4
:1005E80021F0004110EBD37021FA04F642EB06012A
:1005F8005EEA430E08BF20EAD37070BDC4F10C0454
:10060800C4F1200500FA04F320FA05F001FA04F217
:1006180040EA020001F0004110EBD37041F1000103
:100628005EEA430E08BF20EAD37070BDC4F120050E
:1006380000FA05F24EEA020E20FA04F301FA05F276
:1006480043EA020321FA04F001F0004121FA04F21E
:1006580020EA020000EBD3705EEA430E08BF20EAEE
:10066800D37070BD94F0000F0FD101F00046400028
:1006780041EB010111F4801F08BF013CF7D041EAAA
:10068800060195F0000F18BF704703F000465200AE
:1006980043EB030313F4801F08BF013DF7D043EA7F
:1006A8000603704794EA0C0F0CEA135518BF95EA35
:1006B8000C0F0CD050EA410618BF52EA4306D1D1BC
:1006C80081EA030101F000414FF0000070BD50EADB
:1006D800410606BF1046194652EA430619D094EA65
:1006E8000C0F02D150EA013613D195EA0C0F05D14F
:1006F80052EA03361CBF104619460AD181EA0301A3
:1007080001F0004141F0FE4141F470014FF000005A
:1007180070BD41F0FE4141F4780170BD70B54FF0F5
:10072800FF0C4CF4E06C1CEA11541DBF1CEA135575
:1007380094EA0C0F95EA0C0F00F0A7F8A4EB050457
:1007480081EA030E52EA03354FEA013100F088804E
:100758004FEA03334FF0805545EA131343EA126317
:100768004FEA022245EA111545EA10654FEA0026CC
:100778000EF000419D4208BF964244F1FD0404F585
:10078800407402D25B084FEA3202B61A65EB0305E1
:100798005B084FEA32024FF480104FF4002CB6EB9E
:1007A800020E75EB030E22BFB61A754640EA0C001E
:1007B8005B084FEA3202B6EB020E75EB030E22BF5E
:1007C800B61A754640EA5C005B084FEA3202B6EB9F
:1007D800020E75EB030E22BFB61A754640EA9C005E
:1007E8005B084FEA3202B6EB020E75EB030E22BF2E
:1007F800B61A754640EADC0055EA060E18D04FEAEC
:10080800051545EA16754FEA06164FEAC30343EA8B
:1008180052734FEAC2025FEA1C1CC0D111F4801F58
:100828000BD141EA00014FF000004FF0004CB6E751
:1008380011F4801F04BF01430020B4F1FD0C88BFF0
:10084800BCF5E06F3FF6AFAEB5EB030C04BFB6EBFB
:10085800020C5FEA500C50F1000041EB045170BDEE
:100868000EF0004E4EEA113114EB5C04C2BFD4EB1B
:100878000C0541EA045170BD41F480114FF0000E9F
:10088800013C90E645EA060E8DE60CEA135594EA1B
:100898000C0F08BF95EA0C0F3FF43BAF94EA0C0F1E
:1008A8000AD150EA01347FF434AF95EA0C0F7FF493
:1008B80025AF104619462CE795EA0C0F06D152EAE7
:1008C80003353FF4FDAE1046194622E750EA4106CB
:1008D80018BF52EA43067FF4C5AE50EA41047FF4DC
:1008E8000DAF52EA43057FF4EBAE12E74FF0FF3C41
:1008F80006E000BF4FF0010C02E000BF4FF0010C12
:100908004DF804CD4FEA410C7FEA6C5C4FEA430C8A
:1009180018BF7FEA6C5C1BD001B050EA410C0CBFD9
:1009280052EA430C91EA030F02BF90EA020F00203B
:10093800704710F1000F91EA030F58BF994208BFA2
:1009480090422CBFD8176FEAE37040F0010070475F
:100958004FEA410C7FEA6C5C02D150EA013C07D1B6
:100968004FEA430C7FEA6C5CD6D152EA033CD3D001
:100978005DF8040B704700BF8446104662468C46FB
:100988001946634600E000BF01B5FFF7B7FF00282E
:1009980048BF10F1000F01BD4DF808EDFFF7F4FF57
:1009A8000CBF012000205DF808FB00BF4DF808EDE2
:1009B800FFF7EAFF34BF012000205DF808FB00BF05
:1009C8004DF808EDFFF7E0FF94BF012000205DF827
:1009D80008FB00BF4DF808EDFFF7CEFF94BF0120DC
:1009E80000205DF808FB00BF4DF808EDFFF7C4FFD5
:1009F80034BF012000205DF808FB00BF4A0011D277
:100A080012F5001211D20DD56FF47873B3EB625260
:100A18000ED44FEAC12343F0004343EA505323FA6C
:100A280002F070474FF00000704750EA013002D1E1
:100A38004FF0FF3070474FF0000070474FEA410217
:100A4800B2F1E04324BFB3F5001CDCF1FE5C0DD924
:100A580001F0004C4FEAC0024CEA5070B2F1004F6E
:100A680040EB830008BF20F00100704711F0804F71
:100A780021D113F13872BCBF01F00040704741F436
:100A880080114FEA5252C2F11802C2F1200C10FA3A
:100A98000CF320FA02F018BF40F001004FEAC1231E
:100AA8004FEAD32303FA0CFC40EA0C0023FA02F3C2
:100AB8004FEA4303CCE77FEA625307D150EA013398
:100AC8001EBF4FF0FE4040F44000704701F0004068
:100AD80040F0FE4040F40000704700BF7BB972B997
:100AE8000029BEBF00204FF0004106E008BF0028E3
:100AF8001CBF6FF000414FF0FF3000F075B8ADF14A
:100B0800080C6DE904CE002909DB002B1ADB01F083
:100B1800B4F8DDF804E0DDE9022304B07047404290
:100B280061EB4101002B1BDB01F0A7F8DDF804E0C5
:100B3800DDE9022304B0404261EB4101524263EB1C
:100B480043037047524263EB430301F096F8DDF824
:100B580004E0DDE9022304B0404261EB4101704743
:100B6800524263EB430301F088F8DDF804E0DDE965
:100B7800022304B0524263EB4303704753B94AB9A6
:100B8800002908BF00281CBF4FF0FF314FF0FF308D
:100B980000F02AB8ADF1080C6DE904CE01F06DF84B
:100BA800DDF804E0DDE9022304B07047D0B5002287
:100BB8000B4B06460F46FFF787FCFFF71FFF04465F
:100BC800FFF708FC0022074BFFF77EFC02460B46A6
:100BD80030463946FFF7C0FAFFF710FF2146D0BD6F
:100BE8000000F03D0000F041704700BF844641EA34
:100BF800000313F0030349D1403A23D30B68036081
:100C08004B6843608B688360CB68C3600B69036182
:100C18004B6943618B698361CB69C3610B6A03626A
:100C28004B6A43628B6A8362CB6AC3620B6B036352
:100C38004B6B43638B6B8363CB6BC3634030403137
:100C4800403ADBD230320BD30B6803604B68436009
:100C58008B688360CB68C36010301031103AF3D2D0
:100C68000C3205D351F8043B40F8043B043AF9D25E
:100C7800043208D0D2071CBF11F8013B00F8013B31
:100C880001D30B8803806046704700BF082A13D33E
:100C98008B07B1D010F00303AED0C3F10403D21A0E
:100CA800DB071CBF11F8013B00F8013BA4D331F866
:100CB800023B20F8023B9FE7043AD9D3013A11F8E6
:100CC800013B00F8013BF9D20B7803704B78437075
:100CD8008B7883706046704780EA010C1CF0030F24
:100CE80037D110F0030C20F0030021F0030150F875
:100CF800042B08BF51F8043B0ED08CF0030C6FF0A6
:100D08007F434FEACC0C23FA0CFC51F8043B42EA2F
:100D18000C0243EA0C0300BFA2F1013C9A4201BF56
:100D28002CEA020C1CF0803F50F8042B51F8043BCD
:100D3800F2D04FEA02604FEA1222012828BFB0EB36
:100D4800036F08BF1B0AF4D003F0FF03000EC01A9C
:100D5800704710F0030F0AD010F8012B11F8013B6F
:100D6800012A28BF9A42F4D0A2EB030070474DF83D
:100D7800045D50F8042B01F0030521F0030151F83C
:100D8800043B022D26D04DD822F07F45B5EB132F1A
:100D9800A2F1013C2CEA020C0DD11CF0803C08BFEA
:100DA80051F8043B0AD185EA0205B5EB036F0CD173
:100DB80050F8042BE8E74FEA13235BE03CF07F4C44
:100DC80054D10B784FEA126554E04FEA126503F0EC
:100DD800FF034FE04FEA0245A2F1013C4FEA1545F7
:100DE8002CEA020CB5EB134F18D11CF0803C08BF5D
:100DF80051F8043B07D185EA0205B5EB034F09D149
:100E080050F8042BE6E75FEA0C4C2FD10B884FEA29
:100E180012452FE04FEA03434FEA12454FEA1343C6
:100E280028E000BF02F0FF05B5EB136FA2F1013C0B
:100E38002CEA020C0DD11CF0803C08BF51F8043B91
:100E48000AD185EA0205B5EB032F0AD150F8042B25
:100E5800E8E74FEA13630DE012F0FF0F06D051F8F0
:100E6800043B4FEA122523F07F4303E04FF00000D4
:100E780020BC704705F0FF0203F0FF00012828BFDF
:100E8800904204BF2D0A1B0AF4D0A2EB000020BC3C
:100E9800704700BF4FEA410C7FEA6C5C02D150EA10
:100EA800013C0AD14FEA430C7FEA6C5C02D152EA5A
:100EB800033C02D14FF0000070474FF0010070472B
:100EC8004FEA410212F5001215D211D56FF478736A
:100ED800B3EB625212D94FEAC12343F0004343EA0D
:100EE800505311F0004F23FA02F018BF40427047E8
:100EF8004FF00000704750EA013005D111F0004072
:100F080008BF6FF0004070474FF00000704700BF07
:100F18002DE9F14F03F11C0402EB840C4FEA930B0B
:100F28008A68CB680868496800F046F93CE9F0002F
:100F38006040694072407B400BF1060E4EE083EA48
:100F4800134480EA134582EA134746BA96EA3444C2
:100F5800604000F00F1684EA063420F00F1684EA89
:100F6800161054BA94EA0106724002F00F1486EA89
:100F7800043622F00F1486EA14124CBA6540694010
:100F880001F00F1485EA043521F00F1485EA1411D5
:100F98005CBA67407B4003F00F1487EA043723F0FC
:100FA8000F1487EA141344BA44404DBA4D4056BA58
:100FB80056405FBA5F4087EA174886EA174B84EACB
:100FC80017464FEA38488BEA1B4485EA1B4788EAEC
:100FD8001B4580EA3440694072407B4000F0703421
:100FE80000F0803500F00F3040EA440040EAD500B8
:100FF80080EA900404F0332480EA8400604001F021
:10100800703401F0803501F00F3141EA440141EAC2
:10101800D50181EA910404F0332481EA8401614016
:1010280002F0703402F0803502F00F3242EA4402D6
:1010380042EAD50282EA920404F0332482EA840266
:10104800624003F0703403F0803503F00F3343EA55
:10105800440343EAD50383EA930404F0332483EA80
:1010680084036340C943DB4381EA000483EA0446FE
:1010780086EA020183EA014382EA334583EA14439C
:101088005C4084EA00077FEA040A8AEA024A8AEA9C
:10109800010B87EA11488AEA374A80EA060181EAA1
:1010A8001A418AEA030A04EA0A00454088EA040762
:1010B80007EA0B0041408AEA0B0608EA060084EAC0
:1010C80034428AEA3A4602EA06035840454041401B
:1010D80087EA37438BEA3B4003EA000985EA0905BA
:1010E80082EA0309464006EA0906714085EA0100DA
:1010F80005EA3546464006EA314181EA304181EA4F
:10110800364606EA304686EA354634400F4086EAD7
:10111800010508EA050886EA3640024088EA02081E
:1011280081EA314213405C4080EA020309EA03097C
:1011380087EA0907674088EA040806EA0A0601EA16
:101148000B018AEA0B0425408AEA3A4420404540CC
:101158008BEA3B4B02EA0B02564084EA0B0423401D
:1011680059406E40694087EA364080EA384080EA54
:10117800060380EA104481EA134585EA344585EA86
:1011880017427D4082EA354180EA05403CE9F0009B
:101198006040694072407B40BEF1010E3FF6CFAE21
:1011A80020BC00F05FF828606960AA60EB60BDE8C9
:1011B800F08F00BF00F000BA80EA101404F0F014B9
:1011C80080EA0410604081EA111404F0F01481EA06
:1011D8000411614082EA121404F0F01482EA041245
:1011E800624083EA131404F0F01483EA04136340A2
:1011F80080EA102404F47F4480EA0420604081EAF5
:10120800112404F47F4481EA0421614082EA122413
:1012180004F47F4482EA0422624083EA132404F43B
:101228007F4483EA0423634081EA500404F0553480
:1012380080EA4400614083EA520404F0553482EAAB
:101248004402634082EA900404F0333480EA840064
:10125800624083EA910404F0333481EA84016340F4
:10126800704700BF82EA900404F0333480EA8400B7
:10127800624083EA910404F0333481EA84016340D4
:1012880081EA500404F0553480EA4400614083EA5E
:10129800520404F0553482EA4402634080EA102480
:1012A80004F47F4480EA0420604081EA112404F4B5
:1012B8007F4481EA0421614082EA122404F47F44D5
:1012C80082EA0422624083EA132404F47F4483EA16
:1012D8000423634080EA101404F0F01480EA041038
:1012E800604081EA111404F0F01481EA04116140AD
:1012F80082EA121404F0F01482EA0412624083EACB
:10130800131404F0F01483EA04136340704700BF19
:101318002DE9F14F94464FEA930B8A68CB68086829
:101328004968FFF749FF0BF1060E33E083EA1344DF
:1013380080EA134582EA134746BA96EA3444604085
:1013480000F00F1684EA063420F00F1684EA16100F
:1013580054BA94EA0106724002F00F1486EA043681
:1013680022F00F1486EA14124CBA6540694001F065
:101378000F1485EA043521F00F1485EA14115CBABC
:1013880067407B4003F00F1487EA043723F00F14FB
:1013980087EA1413BCE8F0006040694072407B4063
:1013A80000F0E03400F0103500F00F3040EA54004F
:1013B80040EAC50080EA900404F0332480EA8400FF
:1013C800604001F0E03401F0103501F00F3141EADE
:1013D800540141EAC50181EA910404F0332481EA09
:1013E8008401614002F0E03402F0103502F00F325F
:1013F80042EA540242EAC50282EA920404F0332423
:1014080082EA8402624003F0E03403F0103503F00E
:101418000F3343EA540343EAC50383EA930404F011
:10142800332483EA8403634081EA324787EA134519
:1014380081EA354690EA060484EA034B82EA1B42B5
:1014480080EA044484EA054483EA144A85EA144499
:101458008BEA044B84EA374481EA0B4181EA16415E
:1014680004EA0A00454082EA04082BEA08004140E1
:101478008AEA0B0602EA060084EA34438AEA3A4614
:1014880003EA060778404540414088EA38478BEA36
:101498003B4007EA000985EA090583EA070946404F
:1014A80006EA0906714085EA010005EA3546464024
:1014B80006EA314181EA304181EA364606EA304699
:1014C80086EA3546344008EA010886EA01052A40DA
:1014D80086EA364003405A4081EA31431F407C4047
:1014E80080EA030709EA070988EA0908544088EAF4
:1014F800020806EA0A0601EA0B018AEA0B0215400D
:101508008AEA3A42104045408BEA3B4003405E403D
:101518004240174079404D404E40E443F64386EA46
:1015280018435D4085EA054083EA134386EA034190
:1015380083EA384284EA114383EA04435FEA334387
:10154800BEF1010E3FF6F2AE1ED4BCE8F0006040DA
:10155800694072407B4020BCFFF784FE28606960C8
:10156800AA60EB60BDE8F08F2DE9E0414FF2F00290
:1015780080EA1031114080EA013048404108820871
:10158800C3084FF0000E4FE700F0113001F01131A1
:1015980002F0113203F0113340EA410040EA8200C0
:1015A80040EAC3004FF2F00280EA1031114080EAAD
:1015B80001304840BDE8E0812DE9F04F02F11C05FB
:1015C8000646074600EB850851F8040B043A46F82E
:1015D800040BF9D14FF0010CFFF7C6FF5FEA30208A
:1015E80080EA0C001ECF41404A4053405C401EC672
:1015F8002000464517D04FEA4C0C1CF4807F18BFDA
:10160800ACF1E50C2C2DE7D03C2D06D1FFF7ACFF53
:1016180006CF41404A4006C6100006CF41404A4026
:1016280006C61000D8E736E90F00FFF7C5FD043DF0
:1016380086E80F00F7D1BDE8F08F00BF2DE9F04F25
:10164800B0E8FE0783B02DE9010790E8005F4FF08E
:101658000A0006900198DB199CEA030C18EB3C4839
:1016680097EA080713EB375393EA3C4C18EB3C68AE
:1016780098EA375724189EEA040E19EB3E4990EA77
:10168800090014EB305494EA3E4E19EB3E6999EA8E
:101698003050CDE90489DDE9028949199AEA010A3D
:1016A80018EB3A4895EA080511EB355191EA3A4AA0
:1016B80018EB3A6898EA355592199BEA020B19EB30
:1016C8003B4996EA090612EB365292EA3B4B19EB74
:1016D8003B6999EA365613EB706393EA3B6B18EB58
:1016E8003B4898EA706013EB305393EA3B4B5FEA50
:1016F8003B6B18EB0B0898EA30505FEA706014EB0C
:10170800756494EA3C6C19EB3C4999EA756514EBED
:10171800355494EA3C4C5FEA3C6C19EB0C0999EAA5
:1017280035555FEA7565CDE90289DDE9048911EB74
:10173800766191EA3E6E18EB3E4898EA766611EBC0
:10174800365191EA3E4E5FEA3E6E18EB0E0898EA73
:1017580036565FEA766612EB776292EA3A6A19EBD6
:101768003A4999EA776712EB375292EA3A4A5FEABE
:101778003A6A19EB0A0999EA37575FEA77670190DD
:10178800069801387FF465AF01BC80E8005FBDE8CA
:10179800000700E9FE0703B0BDE8F08F30B44FF052
:1017A800000310F8014B11F8015B013A84EA0504C3
:1017B80043EA0403F5D1A3F101034FEAD37030BC27
:1017C800704700BF4FF0000310F8012B013943EABE
:1017D8000203F9D1A3F101034FEAD370704700BFA8
:1017E80030B411F8014B12F8015B6C4000F8014B62
:1017F800013BF6D130BC70472DE9F14FF8C892E8AB
:10180800005E19EB03095AEB040A5BEB050B5CEB72
:10181800060C4EEB070E91E8E001A9FB0502AAFBB6
:101828000543E9FB6624EAFB6634A9FB0765E9FB87
:101838006845B1E80003EBFB6836ECFB6846EEFB55
:101848006856ABFB0987ECFB6957EEFB696791E8C3
:101858000202EAFB6148EBFB6158ECFB6168EEFBB6
:1018680061784FF00001EAFB0951EBFB6961ECFB81
:101878006971EEFB69814FF4A03C4FEA154949EACA
:1018880006495FF0000AE9FB0C0A4FEA164646EAE9
:101898000746E6FB6C2A4FEA174747EA0847E7FB83
:1018A8006C3A4FEA184848EA0148E8FB6C4AADB27E
:1018B8005544AF0805F0030507EB8707C01952F137
:1018C800000153F1000254F1000345F1000420BC6B
:1018D8001FC5BDE8F08F00BF30B490E83C10511D23
:1018E80053F1000154F1000155F100014CF10001E0
:1018F8004FEA9101494201F00501521853F10003E2
:1019080054F1000455F100054CF1000C0CF0030CE7
:1019180080E83C1030BC70472DE9F04F90E8F00F9C
:1019280000F140004FF0040E59E0F0B4826BC36B35
:1019380004680525242687593C444FEA724787EAFC
:10194800F24787EA92273C4442684FEAF21787EA4F
:10195800B24787EAD2073C4440F8044B032D08BF3E
:101968006FF01B0687593A444FEA734787EAF347F3
:1019780087EA93273A4443684FEAF31787EAB3475D
:1019880087EAD3073A4440F8042B87593B444FEA87
:10199800744787EAF44787EA94273B4444684FEA48
:1019A800F41787EAB44787EAD4073B4440F8043B76
:1019B800013DC0D1A0F13C00076A3C444FEA7247A0
:1019C80087EAF24787EA92273C4402684FEAF2170F
:1019D80087EAB24787EAD2073C44C463F0BC4FF0B9
:1019E800020288EA781C8CEAF84C0BEBBC1C8AEAE9
:1019F800090303EA080383EA0A039C4450F8043BFA
:101A08009C4451F8043B9C44674444EA050B0BEAA8
:101A1800060B04EA05034BEA030BE34484EAF423C8
:101A280083EA34530BEBB30B87EA771C8CEAF74C49
:101A38000AEBBC1C89EA080303EA070383EA0903E3
:101A48009C4450F8043B9C4451F8043B9C44664435
:101A58004BEA040A0AEA050A0BEA04034AEA030AFB
:101A6800E2448BEAFB2383EA3B530AEBB30A86EA98
:101A7800761C8CEAF64C09EBBC1C88EA070303EADF
:101A8800060383EA08039C4450F8043B9C4451F83D
:101A9800043B9C4465444AEA0B0909EA04090AEA3A
:101AA8000B0349EA0309E1448AEAFA2383EA3A5331
:101AB80009EBB30985EA751C8CEAF54C08EBBC1CEC
:101AC80087EA060303EA050383EA07039C4450F800
:101AD800043B9C4451F8043B9C44644449EA0A088A
:101AE80008EA0B0809EA0A0348EA0308E04489EA15
:101AF800F92383EA395308EBB30884EA741C8CEAA7
:101B0800F44C07EBBC1C86EA050303EA040383EAEA
:101B180006039C4450F8043B9C4451F8043B9C4405
:101B2800E34448EA090707EA0A0708EA090347EA13
:101B38000307674488EAF82383EA385307EBB307B7
:101B48008BEA7B1C8CEAFB4C06EBBC1C85EA040385
:101B580003EA0B0383EA05039C4450F8043B9C44C6
:101B680051F8043B9C44E24447EA080606EA0906A1
:101B780007EA080346EA0306664487EAF72383EA86
:101B8800375306EBB3068AEA7A1C8CEAFA4C05EB63
:101B9800BC1C84EA0B0303EA0A0383EA04039C449B
:101BA80050F8043B9C4451F8043B9C44E14446EA09
:101BB800070505EA080506EA070345EA030565443B
:101BC80086EAF62383EA365305EBB30589EA791CDE
:101BD8008CEAF94C04EBBC1C8BEA0A0303EA090300
:101BE80083EA0B039C4450F8043B9C4451F8043BA3
:101BF8009C44E04445EA060404EA070405EA0603AF
:101C080044EA0304644485EAF52383EA355304EB84
:101C1800B304013A7FF4E5AEA0F14000BEF1010E35
:101C28007FF483AEA0F1400C9CE80F00001949191D
:101C38009219DB19ACE80F009CE80F0040444944B6
:101C480052445B44ACE80F00BDE8F08F38B5002281
:101C5800002304460D46FEF7A9FE28B9204629466A
:101C6800BDE83840FEF7A2BF204605F10041FEF767
:101C78009DFF404261EB410138BD2DE9F0478646A2
:101C88008C460846089E154674461946002B40F0B7
:101C9800C1808542B2FA82F245D94AB1C2F1200325
:101CA80000FA02FC954094402EFA03F343EA0C0C28
:101CB8004FEA154EA8B2230CBCFBFEF80EFB18CC5D
:101CC80008FB00F943EA0C43994528D9EB1808F1B9
:101CD800FF3704D2994502D9A8F102072B44A3EB98
:101CE8000903A4B2B3FBFEFC0EFB1C330CFB00F093
:101CF80044EA0344A04214D92C190CF1FF3304D24E
:101D0800A04202D9ACF102032C44241A43EA07404A
:101D18001EB1D440002334607360BDE8F0874746A5
:101D2800DDE76346F1E792BB431B01214FEA154EFD
:101D3800AFB2200CB3FBFEFC0EFB1C330CFB07F808
:101D480040EA0343984561D9EB180CF1FF3004D2FF
:101D5800984502D9ACF102002B44A3EB0803A4B2C6
:101D6800B3FBFEFC0EFB1C330CFB07F744EA0344F1
:101D7800A7424DD92C190CF1FF3304D2A74202D93E
:101D8800ACF102032C44E41B43EA0040C0E7C2F173
:101D980020039540944020FA03F12EFA03F34FEA0A
:101DA800154E9040AFB20343B1FBFEFC0EFB1C1076
:101DB800190C0CFB07F841EA0041884522D969183B
:101DC8000CF1FF3004D2884502D9ACF10200294455
:101DD800A1EB08019BB2B1FBFEFC0EFB1C110CFB36
:101DE80007F743EA01439F420ED9EB180CF1FF3184
:101DF80004D29F4202D9ACF102012B44DB1B41EA19
:101E0800004193E76046E3E76146F7E76046A4E7E9
:101E18006346B8E7834206D916B9002108467CE72D
:101E2800C6E900E0F9E7B3FA83F78FB9834201D333
:101E3800724508D8BEEB020460EB030301209C4600
:101E48001EB9002169E73846FAE7C6E9004CF8E709
:101E5800C7F1200CBB400EFA07F522FA0CF42EFA53
:101E68000CF1BA401C4320FA0CF3B8404FEA14496D
:101E780001431FFA84FEB3FBF9F809FB18300B0C79
:101E880008FB0EFA43EA00439A4540D9E31808F1E3
:101E9800FF3004D29A4502D9A8F102002344A3EBEB
:101EA8000A0389B2B3FBF9F809FB183308FB0EFEE5
:101EB80041EA03418E452CD9611808F1FF3304D259
:101EC8008E4502D9A8F10203214443EA0040A1EB60
:101ED8000E01A0FB02984145CE46434602D306D1E7
:101EE8004D4504D20138B9EB020E68EB0403002E0D
:101EF800A7D0B5EB0E0261EB030101FA0CFC22FA44
:101F080007F3F9404CEA0303C6E9003199E7404674
:101F1800C5E74346D9E70000012870B50D4606D04D
:101F28004CF081FC162303604FF0FF3070BD5EF06B
:101F3800C6FA1D4A2B686E68A3FB023402FB0644EE
:101F4800AD685B1944EBE574C50B45EA4145A5FB53
:101F58000256C90B02FB01615B1BC0F30E0064EB68
:101F68000101A0FB0204C20B42EA4442981A61F143
:101F780000010BA3D3E90023FEF7B0FD4FF02003C7
:101F8800EFF3118483F31288BFF36F8F074BC3E914
:101F980000019A6084F31188BFF36F8F0020C5E7B2
:101FA80000CA9A3B0000000000CA9A3BE0210020CA
:101FB8002DE9F04F8846D0F8201182460B6B164663
:101FC8008FB053B10622183106F1200039F0A2FC77
:101FD80018B901200FB0BDE8F08F504604A9D8F811
:101FE8006050D8F88040D6F8807054F038FF002848
:101FF80052D1DDF820B0BBF1000F04D1DDF81CB0E0
:10200800BBF1000F27D042F20F71099B049A8B4253
:102018000AD16FF47A63D31840F2657293428CBF89
:102028006FF058036FF05B034046ABEB030952F0C7
:1020380079FFD8F88C20034608F194010AB9D8F83A
:102048009020D8F850005D46CDE9009050461FF02A
:10205800A3F9CB46044604F59C530833BB42B8D3D6
:10206800336DB3F57A6F1ADDD8F85030B3F57A6F5F
:10207800ACBF4FF0000A4FF0010A002D12DB07F544
:102088009C5308339C4200F2CB80BBF1190F00F33C
:10209800C7804FF0020B3AE04FF0000BDBE74FF040
:1020A800000AEAE7336E03EB4A03AB4215DA384617
:1020B800FEF790F9804620468946FEF78BF94FF0E7
:1020C80033325B4BFEF700FA02460B464046494660
:1020D800FEF76CFC002840F0A38007F59C530833FA
:1020E800A342C0F09D80BBF1190F00F3998015F150
:1020F800550F31DB15F1500FCBDB15F14B0F2EDBF4
:1021080015F1460FB4BF4FF0040B4FF0050B2046F6
:10211800FEF760F9804638468946FEF75BF90246C5
:102128000B46CDE902230022424BFEF7CDF90246C9
:102138000B4640464946FEF757FC98B10BF10A0B8F
:10214800BAF1000F01D0ABF1020B306E401B5845BD
:10215800B4BF002001203DE74FF0010BD7E74FF057
:10216800030BD4E74FF03332DDE90201304BFEF7C1
:10217800ABF902460B4640464946FEF735FC10B11E
:102188000BF1050BDCE728A3D3E90023DDE9020105
:10219800FEF79AF902460B4640464946FEF724FCEC
:1021A80010B10BF1020BCBE7BC4202D90BF1010BCA
:1021B800C6E700221F4B40464946FEF785F902460E
:1021C8000B46DDE90201FEF70FFC10B1ABF10A0B7B
:1021D800B6E74FF03332164B40464946FEF774F9DE
:1021E80002460B46DDE90201FEF7FEFB10B1ABF13A
:1021F800050BA5E70CA3D3E9002340464946FEF7A3
:1022080063F902460B46DDE90201FEF7EDFB10B16A
:10221800ABF1020B94E7BC4238BF0BF1FF3B8FE7F1
:102228000020D7E6AFF300809A9999999999F13FE0
:102238003333F33F0000F83FC1F30A5C02460B4614
:102248002DE9F041ACF2FF350C460646132D34DC7F
:10225800002D20DBDFF8D0800F4648FA05F801EAA8
:10226800080C5CEA000C2DD02DA3D3E90023FDF760
:1022780075FF00220023FEF7B7FB40B1002C03DDF9
:102288004FF480132B411F4427EA080400262146F7
:102298003046BDE8F08122A3D3E90023FDF75EFFB5
:1022A80000220023FEF7A0FB0028F0D0002C33DB2F
:1022B8003443EBD000261D4CE9E7332D06DDB5F598
:1022C800806F26D010461946BDE8F081ACF2134C59
:1022D8004FF0FF3727FA0CF73842F3D010A3D3E9B1
:1022E8000023FDF73BFF00220023FEF77DFB0028BB
:1022F800CDD0002C334609DD142D06D0C5F13405A8
:102308000122AA4013449E4200D9013423EA070659
:10231800BDE7FDF723FFD7E700264FF00044B6E7F7
:102328009C7500883CE4377EFFFF0F000000F03FFB
:10233800C1F30A5C02460B462DE9F041ACF2FF35C9
:102348000C460646132D32DC002D20DBDFF8E0803A
:102358000F4648FA05F801EA080C5CEA000C2BD095
:1023680031A3D3E90023FDF7F9FE00220023FEF78D
:102378003BFB40B1002C03DA4FF480132B411F4480
:1023880027EA0804002621463046BDE8F08126A346
:10239800D3E90023FDF7E2FE00220023FEF724FB29
:1023A8000028F0D0002C27DB00263446EBE7332D3D
:1023B80006DDB5F5806F1CD010461946BDE8F081E2
:1023C800ACF2134C4FF0FF3727FA0CF70742F3D063
:1023D80015A3D3E90023FDF7C1FE00220023FEF771
:1023E80003FB0028CFD0002C33460CDB23EA07067A
:1023F800C9E7FDF7B3FEE1E724F0004426430DD119
:102408004FF00044BFE7142D06D0C5F13405012272
:10241800AA401344B342E9D20134E7E70026054C49
:10242800B1E700BFAFF300809C7500883CE4377EBD
:10243800FFFF0F000000F0BFF8B5C1F30A560446CD
:102448000D4617460B462EBB21F00043034320D010
:102458002D4B0022FEF738F82C4B04460D469F42C0
:1024680041DBC1F30A560B46363EBA1940F2FE71FB
:102478008A4217DC002A30DC12F1350F1EDB244EAD
:10248800363220461E40234B46EA02510022FEF710
:102498001BF8F8BD40F2FF729642E6D10246FDF7FE
:1024A8005DFEF8BD14A3D3E90023ED0F1A481C46BE
:1024B80065F3DF742146FEF707F8F8BD05F0004420
:1024C800164844F0D27141F4B7310DA3D3E9002383
:1024D80041F01F01FDF7F8FFF8BD0D4E20461E40E4
:1024E80046EA0251F8BD06A3D3E90023FDF7ECFF45
:1024F800F8BD00BFAFF300809C7500883CE4377ED0
:1025080059F3F8C21F6EA50100005043B03CFFFF0D
:10251800FFFF0F800000903C9C75008859F3F8C2BB
:102528002DE9F04F016C9BB016461F46279D04907D
:10253800CDE9026749B1426C0123044693404A60E1
:102548008B6041F051FA00232364B7F10009C0F20F
:10255800B68000232B607E4B33EA090300F0BA8073
:102568000022DDE90234184621460023CDE908019E
:10257800FEF712FA804668B10123269A1360289B59
:1025880013B1744B289A1360DFF8CC8140461BB016
:10259800BDE8F08F18AB0498019319AB0093DDE9FF
:1025A800082341F027FE83465FEA195540F0A980C9
:1025B800DDE91885454405F23243202B40F34D826E
:1025C800C3F1400309FA03F905F2124326FA03F3AB
:1025D80049EA0300FDF7FEFE013D0123A1F1F87170
:1025E800109300225D4BFDF7B7FD53A3D3E90023F9
:1025F800FDF76AFF52A3D3E90023FDF7AFFD0646B6
:102608000F462846FDF7F6FE4FA3D3E90023FDF752
:102618005BFF02460B4630463946FDF79FFD0646EE
:102628000F46FEF74DFC002282460023304639460D
:10263800FEF7BCF9002840F00382A8EB0508BAF1C0
:10264800160F08F1FF33069300F2A781444E06EBFC
:10265800CA06DDE90801D6E90023FEF7A7F9002834
:1026680000F0848000230AF1FF3A0F9308F1FF334A
:10267800002BC0F2998100230A93BAF1000F7BDA8C
:102688000A9BCDF82CA0A3EB0A030A93CAF1000316
:102698004FF0000A0E93249B092B77D8052B40F3A3
:1026A800E181043B00272493249B023B032B00F287
:1026B8005986DFE813F05404510447042C0401231D
:1026C80029F000492B60224BCDF80C9033EA09031E
:1026D8007FF446AFC9F3130942F20F73269A59EAF9
:1026E800060913601DD0289BDFF87880002B3FF483
:1026F8004DAF08F10303289A404613601BB0BDE8AC
:10270800F08FDDE90812CDF84080A5F2FF35C2F35D
:1027180013030846DDF8608043F07F5141F440110F
:102728005FE7289BDFF84080002B3FF42FAF08F1CC
:102738000803E0E7AFF3008061436F63A787D23FE8
:10274800B3C8608B288AC63FFB799F501344D33F98
:102758000000F07F31670700306707000000F83F8E
:10276800A0440600CC670700C0670700B8F1000F57
:1027780040F3B1840F900A90069BCDF82CA05344E7
:10278800069300230E93249B092B87D90023012746
:10279800CDE924334FF0FF330C970793049B0021B6
:1027A8005964079B1193049841F0F8F805900028A4
:1027B80000F0E185079B0E2B8CBF002707F001076F
:1027C800DDE904321A64002F00F01B810B9A002AFD
:1027D80040F34A81BC4E02F00F03D4054FEA221899
:1027E80006EBC303D3E9006740F17083B74B08F0E9
:1027F8000F080325D3E90823DDE90801FDF78EFF5B
:10280800CDE91201B8F1000F12D0DFF8C09218F02C
:10281800010F08D0304639460135D9E90023FDF7C4
:1028280053FE06460F465FEA680809F10809EED12B
:1028380032463B46DDE91201FDF770FF80468946C6
:102848000F9B43B10022A24B40464946FEF7AEF823
:10285800002840F047842846FDF7CCFD42464B4609
:10286800FDF732FE9B4B0022FDF778FC079B0646DE
:10287800A1F15077002B00F0AB80079B0B9C1293C3
:10288800059B404612995D1CCDE914678E4E06EBF8
:10289800C10353E90212CDE916124946FEF710FBAF
:1028A80000F13007FDF7A6FD02460B4640464946B3
:1028B800FFB2FDF751FC89460C998046DDE91623E5
:1028C800002900F00F8100208349FDF727FFDDE98B
:1028D8001423FDF741FC059E42464B4637700646D9
:1028E8000F46FEF781F8002840F02F850023CDF829
:1028F80058A0CDF850B09A46DDF848B012942BE0B5
:102908000AF1010ADA4580F2BD84304639460022D0
:10291800724BFDF7D9FD0022704B06460F46404624
:102928004946FDF7D1FD89468046FEF7C9FA0446B7
:10293800FDF760FD02460B46303440464946FDF738
:102948000BFC32463B4605F8014B80468946FEF7AC
:102958002DF8002840F09C8442464B4600205C49F4
:10296800FDF7FAFB32463B46FEF720F80028C7D0B1
:10297800DDF850B02F46129C059902E08F4200F016
:102988005F843A4617F8013D392BF7D00133DBB2A3
:102998003B70DDF8148005926BE101230F9308F179
:1029A800FF33002BBFF667AEC8F101030A9300237B
:1029B800069362E62846FDF71DFD42464B46FDF7A5
:1029C80083FD0022434BFDF7C9FB0646A1F1507772
:1029D800404649460022424BFDF7BEFB32463B4685
:1029E80080468946FEF700F8002840F0AD8340464F
:1029F8004946324607F10043FDF7D8FF002840F06A
:102A0800D5810B9A199B0E2A02DC002B80F2AD812E
:102A18000C9A002A00F0B580249A012A40F3858395
:102A2800079A0E9B551EAB42C0F2C782002AA3EB41
:102A3800050580F25B840A9B079AA3EB0208C9E2AA
:102A48005046FDF7D7FC32463B46FDF7A5FF002868
:102A58007FF4F3AD0AF1FF3AEFE5C3F1200306FA7C
:102A680003F0B7E501271FE600F0A3820B9B164E83
:102A78005D4205F00F0306EBC303DDE90801D3E966
:102A88000023FDF721FD2E11CDE9120100F052843B
:102A98000E4C0023022580468946F00709D540469A
:102AA80049460135D4E90023FDF70EFD3B46804633
:102AB8008946761004F10804EFD1002B7FF4C0AEEC
:102AC800DDE91289BCE600BFA04406007844060090
:102AD8000000F03F00001C400000E03F00002440E0
:102AE80000001440DDE91401FDF7EEFC059B1F70A2
:102AF800129B012BCDE90C0100F00984129F059B64
:102B0800CDF840A01F440022AA4B40464946FDF795
:102B1800DBFC89468046FEF7D3F98246FDF76AFC5E
:102B280002460B460AF1300A40464946FDF714FBB7
:102B380005F801ABAF4280468946E4D1DDF840A0F4
:102B480000229D4BDDE90C01FDF708FB42464B4690
:102B5800FDF72CFF002840F07B8300209649DDE933
:102B68000C23FDF7F9FA42464B46FDF73DFF0028D6
:102B780040F01982199B002B03DB0B9B0E2B40F3B3
:102B8800F58000230E9DDDF828801E460C93B8F1D1
:102B9800000F0DDD069900290B4609DD41450A9A0B
:102BA800A8BF4346D21AA8EB0308CB1A0A92069389
:102BB8000E9B53B10C9B13B1002D40F01E82594659
:102BC8000E9A049841F0F8F883460121049841F0E0
:102BD80013F80746BAF1000F40F06381249B012BDC
:102BE80040F37A81012306990B4413F01F0308D0A0
:102BF800C3F12002042A00F3B5810AD0C3F13C03D3
:102C080000E01C230A9A98441A440A92069A1A4425
:102C180006920A9B002B05DD59461A46049841F096
:102C280025F98346069B002B05DD39461A4604988C
:102C380041F01CF90746249B022B0F9BD4BF0025AB
:102C48000125002B40F0BE80079B002B24DC1DB320
:102C5800079B002B00F08F81259BDDF81480DC4357
:102C68003946049840F0C0FE1EB13146049840F041
:102C7800BBFE5946049840F0B7FE00220599631C34
:102C88000A70269A1360289B002B3FF47FAC4046BD
:102C980019601BB0BDE8F08F0C9B002B00F0AF80D3
:102CA800B8F1000F00F3C081BAF1000F40F0D382F1
:102CB800B146059D079C6B1E1C44029B089403F0BB
:102CC8000103049C0A933946584640F0D1F831462E
:102CD8008246584641F03EF94A46394680462046E3
:102CE80041F058F9C26801460AF13003002A40F061
:102CF800A281CDE90603584641F02CF906990690C1
:102D0800204640F071FE249B069A52EA0301079B75
:102D180040F0C2810A9A002A00F0F282B8F1000F4E
:102D2800C0F2AD81089AA846AA4208F8013B00F013
:102D3800D282594600230A22204640F05FFE4E45C3
:102D4800834631464FF000034FF00A02204600F058
:102D58009D8140F053FE4946064600230A2220463C
:102D680040F04CFE45468146ADE7144E0B9B06EB02
:102D7800C306D6E90034CDE90234259B002B80F246
:102D8800E881079B002B00F3E481079B73B90022BD
:102D98000B4BDDE90201FDF797FB02460B46DDE927
:102DA8000801FDF70DFE002800F0CE8100273E4601
:102DB80052E700BF000024400000E03FA0440600A6
:102DC800000014403946584641F0C4F80028BFF6C0
:102DD8003BAF0B9B59460A220498013B0B930023F7
:102DE80040F00CFE0C9B8346002B40F09282119B16
:102DF800002B119B079302DC002D7FF429AFDDF82F
:102E080014800125079CDDF8109007E0594600233F
:102E18000A22484640F0F2FD0135834639465846B5
:102E280040F026F8A54200F1300308F8013BEDDB3D
:102E3800079A0025002ACCBF90464FF00108059A52
:102E48009044594601220498029341F00FF83946FC
:102E5800834641F07FF8002840F3E481059A02E0B8
:102E6800904500F0D48118F8013CC24608F1FF38BB
:102E7800392BF5D001330B9C88F80030394604987B
:102E880040F0B2FD002E00F0C8812DB1B54203D04C
:102E98002946049840F0A8FDDDF81480CDF814A068
:102EA800E3E601465246049840F086FF249B074615
:102EB800012B40F395804FF0000A3B6907EB830331
:102EC800186940F045FEC0F120038CE6DDE90834BE
:102ED8000225CDE9123495E4029B002B7FF482AEE3
:102EE800DDE90212C2F31303002B7FF47BAEAD4B76
:102EF800134033B10A9B01330A93069B01330693AF
:102F08000123BAF1000F40F0F9819A466AE60123DD
:102F18000C93259B0B9A134411930133012B1D46E7
:102F28000793B8BF0125172D40F31382012204230C
:102F38005B001146013203F11400A842F8D9049B42
:102F4800596430E401230C93259B002B40F3BE8089
:102F58001D4611930793E6E700230C93D9E7002356
:102F68000C93F1E7C3F11C030A9A19441A449844D4
:102F78000A9206914DE639460522049840F03EFD36
:102F880007465846394640F0E5FF00287FF764AE0B
:102F9800DDF81480059B0B9C013301340593312324
:102FA80088F800305CE63A4617F8013D302BFAD035
:102FB800EFE40225DDE9088942E40E9B0E95EB1A41
:102FC80000259A44DDE90632134406930A9B984685
:102FD80013440A930121049840F00EFE0646D6E5F4
:102FE800029B002B7FF467AFDDE90201C1F31303F5
:102FF8000A46002B3FF47BAF5DE7049C31462A4626
:10300800204640F0D9FE06465A462046314640F052
:1030180021FE59468346204640F0E6FC0E9B5B1B8A
:103028000E933FF4D2ADCAE531464246049840F0CB
:103038001DFF064638E60498069340F0D5FCB8F123
:10304800000F069B08DB029A249902F0010248EA65
:10305800010852EA08022ED1594601220498029327
:1030680040F004FF3946834640F074FF0028029B75
:1030780040F36581392B00F031810AF13103AA460A
:103088000B9C35464E460AF8013BF7E640F0B6FC85
:1030980045460646814616E6B8F1000FC0F25E8145
:1030A800249948EA01080A9951EA080800F056816B
:1030B800002A7FF737AE392B00F01081AA4601337A
:1030C80035460B9C4E460AF8013BD7E6012325936B
:1030D8000793FFF763BBC8F1010306900F900A93AB
:1030E800FFF74ABB079B002B3FF464AC119B002BF6
:1030F8007FF787AC0B9A404649461293541E2A4BD9
:103108000022FDF7E1F980468946681CFDF772F94F
:1031180042464B46FDF7D8F90022244BFDF71EF82E
:103128000646A1F15077FFF7ABBB109A002A00F0D2
:103138008B8003F23343069A0E9D1A4406920A9A2C
:1031480090461A440A9245E70027DDF814803E4667
:1031580020E7DDE90889DDE9022340464946FDF715
:10316800DDFA059FFDF7ACFE0546FDF743F9DDE9FD
:103178000223FDF7A9F90B46024649464046FCF7EB
:10318800EBFF05F1300307F8013B079B012B00F02B
:103198008980CDF818B00126DDF81C90DDE902AB76
:1031A80022E000BF0000F07F0000244000001C4027
:1031B80052465B4620462946FDF7B0FA0136FDF730
:1031C8007FFE8046FDF716F952465B46FDF77CF90F
:1031D8000B46024629462046FCF7BEFF08F130039D
:1031E800B14507F8013B5AD00022704BFDF76CF946
:1031F8000022002304460D46FDF7CEFB0028D7D059
:10320800DDF818B0DDF814800B9C059731E50B9CB0
:103218003123059A0134137030E6DDF81480CDF8B7
:1032280014A026E503D1029BDB073FF517AE18F87B
:10323800013CC24608F1FF38302BF8D00B9C1DE644
:1032480001343123FFF7A4BB189BC3F1360372E79F
:103258000599FFF796BB7168049840F09FFB0546F7
:10326800002800F08F80336906F10C010C3002331E
:103278009A00FDF7BBFC29460122049840F0F6FDB0
:10328800814616E5DDF858A0DDF850B0FFF7B9BB68
:10329800DDF81480DDF850B0129C0595E9E4DDF8FE
:1032A80018B0454602460B46FCF758FF804689464B
:1032B800DDE90223FDF798FB48B940464946DDE9B8
:1032C8000223FDF769FB00289CD0E9079AD50B9CDF
:1032D8000599FFF756BB35464E46B2E5A846392351
:1032E8003546059A4E4608F8013BBCE5069B134453
:1032F80006930A9B984613440A936BE69A46DCE5C4
:10330800392BEBD0B8F1000F3FF7B7AEB7E62F4631
:1033180016E4314600230A22049840F06FFB119B03
:103328000646002B119B07933FF7BAAC002D7FF49C
:103338008FACB5E4DDE912890225FFF781BA7FF485
:103348009EAEDA077FF59BAE94E6DDF8148005950E
:103358008FE40021049B5964FFF725BA002A3FF740
:103368007BAE8CE6049B0025184629465D6440F038
:1033780015FB059068B90E4B00224FF4D5710D4826
:1033880037F060FE02460A4B40F2EA21094837F05E
:1033980059FEDDE9043225951A644FF0FF33012206
:1033A80011930C920793FFF72CBB00BF0000244039
:1033B800D0670700E46707002DE9F04F1C46794BFA
:1033C8009FB00E4600258346186807921A95089004
:1033D80039F0C2FA0021024633460020CDE9040143
:1033E8009846199313F801ABBAF12D0F5ED801A1D5
:1033F80051F82AF093350000B5340000B5340000C8
:10340800B5340000B5340000B5340000B534000010
:10341800B5340000B5340000E9330000E93300009A
:10342800E9330000E9330000E9330000B534000057
:10343800B5340000B5340000B5340000B5340000E0
:10344800B5340000B5340000B5340000B5340000D0
:10345800B5340000B5340000B5340000B5340000C0
:10346800B5340000B5340000B5340000B5340000B0
:10347800B5340000E9330000B5340000B53400006D
:10348800B5340000B5340000B5340000B534000090
:10349800B5340000B5340000B5340000B534000080
:1034A800673B0000B5340000813B0000002309930E
:1034B800BAF1300F00F0688200230A93AAF13003B2
:1034C800092B00F25684002740463D463C46013011
:1034D800082C07EB870104F1010405EB850C199012
:1034E80090F800A0CCBF03EB410703EB4C05AAF111
:1034F8003003092BEBD90899089239F05BFA089A3E
:103508008146002850D1199B0146089498181990B3
:103518009B5CA3F13002092A00F2F0820131924645
:103528001998002A40F0F884431C19934378F0E76F
:103538004FF0010EB31C1993B378A3F1300CBCF112
:10354800090F00F2F582199A302B0B9240F02B8369
:10355800013219921378302BFAD0A3F131000B9273
:10356800082840F21E8300220C9254BB0A9A0A4390
:1035780040F09882BAF1000F07D1692B00F0398327
:1035880040F318826E2B00F01B82079B4FF0000857
:103598004FF0000903B11E60404649461FB0BDE820
:1035A800F08F00BF906A07002AF0200200215346DE
:1035B8000894452A89468A4600F0AD820C91002C71
:1035C800D4D0089A2846A2461346002A08BF2346A4
:1035D8000893FCF7FFFE0B460246102CCDE90423A6
:1035E8000C9BA8BF4FF0100A092CA3EB09030B93FF
:1035F80017DD544B03EBCA0353E91223FCF764FFAE
:10360800024638460F461646FCF7E4FE02460B46CD
:1036180030463946FCF7A2FD0F2CCDE9040100F332
:10362800E1810B9B002B00F097820B9B40F3A78254
:10363800162B40F39A84C4F125030B9A934280F227
:10364800DA84A4EB0A06164416F00F000AD03D49A6
:1036580001EBC001DDE90423D1E90001FCF734FFE7
:10366800CDE9040136F00F034ED0B3F59A7F00F38D
:103678004684102B4FEA231640F3B285DFF8C8E0E2
:103688004FF0000CCDF828907746E246F146DDE988
:10369800042316F0010F104619464FEA66060AF190
:1036A800010A07D0D7E90023FCF70EFF4FF0010C01
:1036B80002460B46012E07F10807EAD1CE46DDF88F
:1036C8002890BCF1000F01D0CDE90423059B0EEB37
:1036D800CA0E1E4EA3F154730593DDE90423DEE9F7
:1036E8000001FCF7F1FE1A4B0A460B40B342CDE944
:1036F800040100F2048417498B4240F2FE844FF023
:10370800FF33154ACDE9043200230A932346089A69
:1037180041465846009540F0C3F91590002800F03E
:10372800EE830B9A4FF0000A0C9B002ACDF820A0DC
:10373800A9EB0303A8BF00230C9322EAE2731493B6
:10374800E2E000BFA0440600784406000000A07C28
:103758000000F07F0000907CFFFFEF7FD21A1F2A45
:10376800A4EB020400F3C682012300259340984687
:1037780026443C440A9BA7421E443B46A8BF234616
:10378800B342A8BF3346002B02DDE41AF61AFF1A2B
:103798000C9B002B00F35482002C00F36A820B9BD5
:1037A800002B00F39D82002E00F38E82002F08DD8F
:1037B80051463A46584640F059FB8246002800F0E8
:1037C8008C824A461A99584640F0E4FB0890002833
:1037D80000F08382089A0023D168D3600D91514686
:1037E80040F0B8FB0028C0F2C584059F00F0228491
:1037F8005146089840F05EFD00224FF08043044691
:103808000D46FDF7DDF8002800F00A820D9B002B1D
:1038180040F07C82049B002B40F06183C7F31303C4
:10382800002B40F0E6820022AB4B20462946FDF7EC
:10383800BDF8002840F0F5832046A84B2946002211
:10384800FCF742FE03460C460E90CDE9123401F116
:1038580000430F93A24EA34B3E409E42DDE90E4526
:1038680000F05B820A9B23B3B6F1D46F21D8DDE95F
:10387800127897A3D3E9002338464146FDF7A0F80C
:10388800A0B141463846FDF7B9F8012838BF0120F4
:10389800FCF7A0FD0D9BCDE91201002B40F037830A
:1038A80001F1004316901793DDE9164505F1D6633B
:1038B8009D1BDDE910783846414640F01BFC024666
:1038C8000B4620462946FCF7FFFD3A464346FCF7DF
:1038D80045FC0C46CDE90401814B2340B34203D19A
:1038E8000A9B002B00F08E821A99584640F07CF80B
:1038F8004946584640F078F85146584640F074F822
:103908000899584640F070F8159C5846616840F090
:1039180045F88146002800F0E081226904F10C0195
:103928000C3002329200FDF761F91CAB5846019346
:103938001BAB0093DDE904341A46CDE91034234665
:1039480040F058FC1A90002800F09C81012158464C
:1039580040F052F98246002800F0BF811B9B002BE3
:10396800C0F2AE810C9A149E9F180A9A1C9C9B1A4E
:103978005D4A2344C4F13604013B9342FFF6EEAEA0
:10398800012300259846F3E698F8013003F0DF0399
:10399800582B00F0758243460133199393F800A021
:1039A800BAF1300FF8D09846BAF1000F7AD0012357
:1039B8000A9383E5492B00F01C814E2B7FF4E5AD7B
:1039C8004A4919A841F02CFB00283FF4DEAD199BA9
:1039D8001B78282B00F07E83454841F02DFC80465B
:1039E800894663E0A4EB0A060B9B1E44002E3FF7B2
:1039F8002BAE3FF489AE764216F00F020AD03D4B4B
:103A080003EBC203DDE90401D3E90023FCF786FEDA
:103A1800CDE9040136113FF477AE1F2E3FDC16F0D6
:103A28001003354F4FF0000C18BF6A230A93DDE9E5
:103A3800042316F0010F1046194607D0D7E90023D2
:103A4800FCF742FD4FF0010C02460B46761007F1D9
:103A58000807EED1BCF1000F01D0CDE904230A9B81
:103A6800A3B1DDE90401C1F30A52C2F16B03002BD3
:103A78000ADD1F2B40F3FA830020342B049040F317
:103A880021844FF05C7305936A230A930022002374
:103A9800DDE90401FCF780FF00283FF437AE22235C
:103AA800CBF800304FF000084FF00009079A0AB130
:103AB800199B1360099B002B3FF46EAD09F100437D
:103AC8004046994649461FB0BDE8F08FAFF30080E5
:103AD8000000C0FFFFFFDF410000F03F0000E03FB3
:103AE8000000F07F0000E07F02FCFFFFEC680700A9
:103AF80004760700A0440600684506004FF0010A56
:103B080023F02002452A7FF42EAD44EA01030A9AE5
:103B180013433FF43AAD199E731C199373782B2BFA
:103B280000F023812D2B3FF403AD4FF0000E04E588
:103B3800002219960C9218E51C9A03F2334304925A
:103B48001D9A22F4801242EA03530593210703D5F4
:103B5800059B43F000430593DDE90489A6E70023AC
:103B6800099308F10103199398F801A0BAF1000F1D
:103B78003FF40BAD98469BE401230993F1E7163314
:103B8800FFF630AF0C9BA9EB0309B34B03EBC9035A
:103B9800DDE90401D3E90023FCF7C0FD804689462E
:103BA80084E7A3F1300C0B9B581C19905B78A3F1A8
:103BB8003002092A00F2D18101300CEB8C0C1990EB
:103BC80003EB4C0C0378ACF1300CA3F13002092A5A
:103BD800F2D90B9A801A082840F3BF8144F61F6275
:103BE8000C92BEF1000F3FF4C0AC0C9A52420C92FA
:103BF800BBE49A4919A841F013FA00283FF4C5AC70
:103C0800199B19A89649013B199341F009FA10B973
:103C1800199B013319934FF00008DFF8489245E7E4
:103C2800914B204629460022FCF74EFC0D9BCDE91E
:103C38001201002B65D101F100430E900F9309E6A4
:103C480051461A46584640F0B7F88246002844D0F4
:103C580001461A9A58463FF0FDFF00283DD00D90C6
:103C680058461A993FF0C0FE0D9B002C1A937FF717
:103C780096AD22461A99584640F0F8F81A9000284E
:103C88007FF48DAD4F46054622234FF00008DFF83C
:103C9800D491CBF80030294658463FF0A5FE394666
:103CA80058463FF0A1FE514658463FF09DFE1599F3
:103CB80058463FF099FE089958463FF095FEF5E6BC
:103CC800149A0C9FD61A50E649463246584640F098
:103CD800CDF8814600287FF469AD4F461A9DD3E799
:103CE8004946149A584640F067F8814600287FF400
:103CF8005AADF2E75D4AD31A012202FA03F590465B
:103D080036E5DDE91234CDE90E34A3E50023584C3D
:103D1800CDE90E34CDE912349CE5A7F15473514F27
:103D28000593DDE904452046294640F0E3F9DDE93D
:103D38000E23FCF7C9FB2B462246FCF70FFA4D4B26
:103D48000F409F42CDE9040140F2DD8003F1547336
:103D5800DDE91001994202D1B0F1FF3FBDD04FF02B
:103D6800FF33454ACDE90432BEE54FF0000EFFF7B8
:103D7800E1BB089940460B9238F01CFE0B9A08905C
:103D880048B10022534617469246154611469146B9
:103D980014460892B4E6199B981819909B5C302B2E
:103DA80040F0278102461146013219921378302BD0
:103DB800F9D0C0F101000144A3F13102082A10D85A
:103DC800DDF864800025A3F1300A01F1010901241E
:103DD80040462F4605EB850500210AEB4505FFF710
:103DE800A3BB4FF000094FF0010A4C464F464D4621
:103DF80086E60023214CCDE90E3400231C4CCDE986
:103E0800123427E5DDE91256C4F313072846314674
:103E1800FDF71CFFFCF72AFB02460B4628463146F5
:103E2800FCF79AF9049D0D9E04462E430D46374330
:103E380043D107A3D3E90023FCF7B8FD00283FF4DA
:103E480053AD4F461A9DDDE9048924E7AFF300809E
:103E58009535A094FFFFCF3FA0440600E068070017
:103E6800E46807000000F07F0000E03FE2FBFFFF8E
:103E78000000F03FFFFF9F7CFFFFEF7F0000F0BFD7
:103E8800099B19A90294584601931AABB04A0093AA
:103E98001BAB40F0C9FD10F0070504463FF402AE25
:103EA800062D7BD1079A12B108F1010313604FF078
:103EB80000084FF00009FFF76FBBA1A3D3E9002367
:103EC800FCF774FD0028BCD1204629469EA3D3E9FF
:103ED8000023FCF789FD00283FF406ADB1E7049BF9
:103EE800012B86D1002F84D14F461A9C22232546C8
:103EF8004FF000084FF00009CBF80030CBE6222342
:103F0800CBF8003087E601F154740594E4E4DDE968
:103F18001234CDE91634C7E4012900F0138204EB0A
:103F2800010E0EF1FF3CCDF82CE003E04FEA4E0500
:103F3800A4450BD0082C05EB850E04F10104F5D936
:103F480007EB8703102CD8BF5F00F1E7DDF82CE002
:103F5800082C894416DC74463CE744F61F629445F5
:103F6800A8BF9446CDF830C03BE60B98794901EBE1
:103F7800C001DDE90423D1E90001FCF7A5FA804678
:103F8800894693E5BEF1100F74464FF00001DCBF7F
:103F980007EB870702EB4707FFF7C6BA1A9A3AB149
:103FA80035211CA840F0B0F958461A993FF01CFD7D
:103FB800013D1B9B042D3FF6C9AD01A252F825F027
:103FC800413B0000F13F0000EB3F0000DD3F0000F7
:103FD800413B00004FF0FF336FF00040CDE9043063
:103FE800B4E55D4B0593B1E51C9B04931D9B0593BC
:103FF800ACE50899E0E6C4F10F04564D05EBC401A1
:10400800DDE90423D1E90001FCF75EFA0B9B1C1BD8
:1040180005EBC405D5E90023FCF756FA8046894626
:1040280044E500234D4CCDE90E3400234C4CCDE93A
:1040380012340FE43B460D98C4464F46AE464949F4
:10404800C3F31302DDE9108900285BD08A4200F02F
:10405800FB80B5BB049A1CEA020F35D0404649469E
:10406800049340F047F80A9B04460D46002B00F0E5
:104078001F81049BC3F30A53C3F16B06002E40F360
:104088006481394C002204EB0653FCF71DFA024602
:104098000B4640464946FCF761F81A9C804689461B
:1040A80040464946314B0022FCF70EFA0B4625469E
:1040B8008046034389467FF4EEAD2223CBF80030D7
:1040C800E9E51EEA030FC9D11A9C0A9B2546002B75
:1040D800E6D1E0E519A81CAA254940F0BBFF052850
:1040E8007FF47AAC1D9B43F0FF4343F4E003059350
:1040F8001C9B0493DDE90489D8E402F15473059309
:10410800FFF702BB002A71D1DDE904452246002CE5
:1041180040F0B4800A9A002A40F0F08025F000446C
:10412800240D2405A4F580141A9D6FEA14536FEA30
:10413800035305934FF0FF330493DDE90489AAE59F
:104148009535A094FFFFDF3F35E5AF350000E03F30
:1041580004690700A04406000000F07F0000E0BFEB
:104168000000E03FFFFF0F000000F03F0000503963
:10417800F06807000D9B4F46DDE90401DDE9108971
:104188000343A1D1C1F31303002B9DD121F00044B7
:10419800240D2405B4F1D66F264695D9089A53699B
:1041A80013B91369012B8FDD0899012258463FF096
:1041B8005DFE514608903FF0CDFE002884DD0A9B45
:1041C800002BAFD0A6F580131A9C6FEA13536FEA41
:1041D800035305934FF0FF330493DDE904895FE748
:1041E8004FF0000ADFF87CE1FFF770BA002D48D1E4
:1041F800049A1CEA020F3FF467AF4046494604930D
:104208003FF078FF0A9B002B40D0049BC3F30A536E
:10421800C3F16B06002E40F3A280534C002204EB3E
:104228000653FCF751F902460B4640464946FBF750
:1042380093FF0022002380468946FCF7ADFB002847
:104248007FF453AE1A9C2BE7DDE904010A9A044671
:10425800002A40D1024601326DD0BEF1000F7FF432
:1042680030AF14EA0C0F3FF42FAFF7E64FF0FF32F0
:1042780002FA03F3049A1A40049205E4BEF1000F0F
:10428800B7D01EEA030F3FF41FAFB6E702460B464E
:1042980040464946FBF760FF1A9C002200238046EF
:1042A80089462546FCF778FB00283FF4F4AC1DE668
:1042B800404649462B462246FBF750FF1A9D80464A
:1042C8008946E8E4C2F14B024FF0FF3393400B40BC
:1042D8000593FFF7D9BB254A1A40B2F1D46F21D90B
:1042E800611CBAD122498B423FF4F8AC02F5801325
:1042F800059300230493DDE90489E5E61B4E1E407F
:10430800B6F1D66F3FF65EAF1A9DB6F15C7F2C46CC
:104318003FF6C6AE22234FF000084FF00009CBF855
:104328000030B8E4100D4FF0FF31C0F16B00814050
:104338008C4292D1DAE70E4A93423FF4CFAC013275
:104348001A40D3E704F1010E02E6404649462246E8
:104358002B46FBF703FF1A9C80468946A0E60246D7
:104368000B4662E7784406000000F03F0000F07F4B
:10437800FFFFEF7F000000002DE9F04F0129844680
:104388008E4687B064D8002942D033A3D3E90023EE
:1043980033A7D7E9006734A5D5E900450FF2D00B5C
:1043A800DBE900AB34A1D1E90001CDE9042334A352
:1043B800D3E90023CDE9002333A3D3E90023CDE9D2
:1043C800022333A3D3E900234FF000084FF000097C
:1043D800CCE90A01DDE90401CCE90C01DDE90001C1
:1043E800CCE90E01DDE90201CCE910010020CCE99D
:1043F8000089CCE90289CCE90467CCE90645CCE917
:1044080008ABCCE91223CCF8D0E007B0BDE8F08FB8
:1044180021A3D3E9002322A7D7E90067CDE9042324
:1044280021A5D5E9004522A3D3E900230FF2880B83
:10443800DBE900ABCDE9002321A1D1E9000122A3EA
:10444800D3E90023CDE9022321A3D3E90023BBE765
:104458006FF07400D9E700BF310BC0FF67263367E0
:10446800D89E05C15D9DBBCB07D57C362A299A62AB
:1044780017DD70305A01599139590EF7D8EC2F15BC
:1044880011155868874AB48EA78FF9640D2E0CDB76
:10449800A44FFABE1D48B547D182E6AD7F520E51F2
:1044A80008C9BCF367E6096A3BA7CA8485AE67BB3F
:1044B8001F6C3E2B8C68059B2BF894FE72F36E3CA8
:1044C800F1361D5F3AF54FA56BBD41FBABD9831F94
:1044D80079217E1319CDE05B13B581688C6934B1FD
:1044E800CDE900230321034AA04702B010BD6FF0B5
:1044F8005700FAE7C82F002073B50E4C0E4D0E4634
:1045080001922946A8700322206846F06DFE042215
:1045180020680DEB020146F067FE3146019A2068DB
:1045280046F062FE02222068E91C46F05DFE02B0F9
:1045380070BD00BFDC2F0020B10F00201FB500F0B8
:104548000F030D2B4FEA1012C0F302101DD812F002
:1045580004021AD10392104A013852F8202000921E
:104568000E4A32F8231002EB83025288019102921C
:104578000B4A13700B4B186883681B6843B16A4673
:104588000321984705B05DF804FB4FF0FF30F9E7C9
:104598006FF05700F6E700BFA0480600D077070085
:1045A800117F0020CC2F00202DE9F0432D4F4FF034
:1045B800FF324FF0FF33386887B0FFF78DFF0646AC
:1045C80090B1294803685B0708D0284B4FF4825103
:1045D8000593022304AA049346F003FE4FF0FF3626
:1045E800304607B0BDE8F0834FF00109204D214C5B
:1045F8002B6821490322206893F8188081F80290DB
:1046080046F0F2FD296804222068143146F0ECFDDA
:104618001A4B1B491B784A461B0143EA09032068C9
:104628000B7046F0E1FD2B6859682068DA6846F09F
:10463800DBFD2968386846F0CBFDB8F1000F05D0DE
:1046480002221049206846F0CFFDC9E74FF0FF333A
:104658004FF0FF323868FFF73FFF2B6893F8188058
:10466800E2E700BFCC2F0020341000203A78070082
:10467800C82F0020DC2F0020B10F0020117F002060
:10468800107F0020B40F00202DE9F043324B87B093
:104698001B78BBB1314F4FF0FF324FF0FF33386812
:1046A800FFF71AFF88B12E48036803F00703022BAF
:1046B80008D92C4B4FF486510593022304AA04937E
:1046C80046F08FFD07B0BDE8F083274D274E2B68D5
:1046D800274C93F818803378012B5FFA83F918D1A7
:1046E800244903223070206881F8029046F07CFD4E
:1046F800296804222068143146F076FD1E4B1F49B4
:104708001B784A461B0143F0010320680B7046F0F2
:104718006BFD2B682068DA68596846F065FDB8F1CA
:10472800010F06D102221649206846F05DFD86F881
:1047380000802968386846F04BFD0028C2D0084838
:1047480003685B07BED00F4B4FF4825105930223D9
:1047580004AA0493B4E700BF137F0020CC2F0020E5
:10476800341000203A780700C82F0020127F00205C
:10477800DC2F0020B10F0020117F0020107F0020C7
:10478800B40F002056780700B0B5F6B0284B0AAF32
:10479800186883685B6A13B126493A1D9847FB7FFE
:1047A8007F33DBB2032B40D87A7F07F120040892CD
:1047B800BA69002107927A69204606923A690592F9
:1047C800FA6804923A7F0392BA6802927A68019270
:1047D800194A52F823304FF4C8720093174B37F038
:1047E8005FFF1748036803F00703022B10D96D46D3
:1047F80088B00AAA134B4FF4E651C2E905344FF4C6
:1048080000739383104B42F8103F46F0EAFCAD4624
:10481800204638F0A1F8214602460220FFF76CFE38
:10482800002007F5D877BD46B0BD6FF01200F8E755
:10483800CC2F00200200FFFF904806007278070086
:1048480034100020D6E507000300000170B5037896
:104858000446212B86B016D8F3B1013B202B1BD878
:10486800DFE803F01D26666D707376791A7C1A8965
:104878008F97A3A68C1A1A1A1A1A1A1A1A1A1A1A17
:104888001A1A1A1AC000602B00F0D680FF2B00F00D
:10489800CC80502B00F0CC80207806B070BD4078DA
:1048A800FFF74CFE0028F7D16278654B1A70F3E7E2
:1048B800644D2B6803F00703022B09D9624B4FF4B0
:1048C800865105930223284604AA049346F089FCDE
:1048D8005E4E33784BBB2B6803F00703022B09D9D4
:1048E8005B4B4FF4865105930223564804AA049360
:1048F80046F077FC607840F01000FFF71FFE554B3C
:10490800186846F08FFC2B6803F00703022B09D9BF
:10491800514B4FF48651059302234A4804AA049345
:1049280046F05FFC01224D4B1A7001233370B3E748
:104938004B49421C474B186846F05FFCACE74949B5
:10494800421CF7E74849421CF4E74849421CF1E792
:104958004749421CEEE74749421CEBE73D4E451CE0
:104968002A464FF48031306846F047FC2A464249CF
:10497800306846F042FC4149621CDBE74049421C72
:10498800D8E7B0F801306A465BBA3E49ADF8003066
:10499800D0E7837842781B0243EA0243C2784FF09B
:1049A8000111134300936A46C4E7FFF7EDFE73E76E
:1049B800284D286846F036FCFFF7F6FD286846F0D3
:1049C80021FC2048036803F00703022B7FF664AF3D
:1049D8002D4B4FF486510593022304AA049346F005
:1049E80000FC59E7194D2B78E3B1284B02222849DE
:1049F800186846F0F9FB174B186846F003FC104B93
:104A08001878FFF79BFD0F48036803F00703022B94
:104A180008D9114B4FF486510593022304AA049335
:104A280046F0DFFB00232B7036E70022194981E7A7
:104A38004FF44031421C7DE71749421C7AE700BF1A
:104A4800B00F0020341000207D790700137F00206C
:104A580092790700CC2F0020B2790700127F00203E
:104A68000500010009000100060001000100FFFF28
:104A7800080001000400FFFF020001000700010018
:104A88000300FFFF03000100C5790700DC2F0020A9
:104A9800B40F00200500FFFF0600FFFF2DE9F04FCF
:104AA80087B0002100AF012032F042FE00214FF410
:104AB800004035F091FC6C4B6C491A686C4B6D48A2
:104AC800B2FBF3F246F04DFC6B4D6C4828605BF08E
:104AD80069F86B4CE0B923685A0713D02B686D4608
:104AE80088B01B686A4667492046C2E905134FF437
:104AF80000739383644B4FF4E25142F8103F46F041
:104B080070FBAD464FF0FF301C37BD46BDE8F08F57
:104B1800286846F077FB236803F00703022B13D9B4
:104B28002B686E4688B01B686A4658492046C2E919
:104B380005134FF400739383534B4FF4E65142F837
:104B4800103F46F04EFBB5464FF0FF324FF0FF33B3
:104B58004F4834F00DFF03264FF480600EF0F0FC50
:104B6800014670B923685B07CCD04A4B4FF4825199
:104B78007B61022342483B6107F1100246F031FB9A
:104B8800C0E7286846F024FB013EE5D1DFF808912C
:104B9800DFF80881012200234946414834F07CFDB2
:104BA80000284AD1236803F00703022B0AD93D4B9A
:104BB8004FF486517B61022331483B6107F11002B3
:104BC80046F00FFB4146484646F031FB2368054650
:104BD80003F00703002839D0022B0ED96E4688B09F
:104BE8006A46314B4FF4C651C2E9053003232448C5
:104BF80042F8103F46F0F5FAB5460026DFF8ACA0BB
:104C08001F48236803F00703022B0FD9EB4688B02F
:104C180018F806306A46C2E905A303234FF4C651C3
:104C280042F8103F46F0DDFADD4615480136F3B28A
:104C3800AB42E6D34046FFF709FE1D4B1B78012B1C
:104C480001D1FFF721FD35F045FBA3E7022BF4D98D
:104C5800184B4FF486517B61022309483B6107F1E9
:104C6800100246F0BEFAE8E7240D0020D2790700CA
:104C780040420F00EB790700CC2F0020883C06004B
:104C880034100020137A0700030000012E7A070071
:104C980068130020427A0700187F0020147F002044
:104CA800081300205F7A07006A7A0700927A0700E3
:104CB800137F0020987A07002DE9F043AD4B99B097
:104CC8009942AD4C00AF28D00133994239D009F050
:104CD800A9FB05464422002107F1180036F0DEFE44
:104CE80044232946A54807F118024AF09CF923688D
:104CF80003F00703002851D0022B0AD9A04B4FF428
:104D080086517B6102239C483B6107F1100246F003
:104D1800ABFA6437BD46BDE8F083236803F00703A8
:104D2800022B0AD9974B4FF48651FB620223204687
:104D3800BB6207F1280246F097FA0122924B1A70DB
:104D4800C5E7914D2B789BB9236803F00703022B25
:104D58000AD98E4B4FF48651FB6202232046BB6270
:104D680007F1280246F080FA894834F029FEAEE7B8
:104D780000204DF0C2F8236803F00703022B0AD97C
:104D8800844B4FF48651FB6202232046BB6207F135
:104D9800280246F069FA00232B70E5E7022B24D994
:104DA8006D467D4B4FF486517B61022372483B610F
:104DB80007F1100246F058FA236803F00703022BA4
:104DC80013D9387E09F02AF988B06A46734B4FF434
:104DD800E651C2E905304FF400739383704B66487F
:104DE80042F8103F46F040FAAD46BB69052B90DD0E
:104DF800236803F00703022B8BD997F84C0009F0BE
:104E080019F96D4688B06A464FF40079654B644ECF
:104E1800C2E90530A2F81C904FF4E651564842F812
:104E2800106F46F021FA2368AD4603F00703022B02
:104E38007FF66FAF97F84D0009F008F988B06A4619
:104E4800594BA2F81C90C2E905304FF4E6514A4884
:104E580042F8106F46F008FA2368AD4603F00703DE
:104E6800022B7FF656AF88B06A46504BA2F81C90CA
:104E7800536107F1200393614FF4E6513E4842F82D
:104E8800106F46F0F1F92368AD4603F00703022BD3
:104E98007FF63FAF97F8460009F0B4F888B06A4645
:104EA800434BA2F81C90C2E905304FF4E651324852
:104EB80042F8106F46F0D8F92368AD4603F00703AF
:104EC800022B7FF626AF88B06A46BB6C4FF003080A
:104ED80038492948C2E905134FF4C65142F8108FE2
:104EE80046F0C2F92368AD4603F00703022B7FF6AC
:104EF80010AF97F84E0009F06DF888B06A462E4B4F
:104F0800A2F81C90C2E905304FF4E6511A4842F85D
:104F1800106F46F0A9F92368AD4603F00703022B8A
:104F28007FF6F7AE97F84F0009F060F888B06A4648
:104F3800224BA2F81C90C2E905304FF4E6510E4806
:104F480042F8106F46F090F92368AD4603F0070366
:104F5800022B7FF6DEAE88B06A463B6D18490648DC
:104F6800C2E905134FF4C65142F8108F46F07CF998
:104F7800AD46CEE6030056D130100020060056514B
:104F88000E7B0700C77A07001E7F0020D67A07002D
:104F9800B0130020FC7A0700247B0700377B07004A
:104FA80003000001467B0700597B0700677B070069
:104FB800737B07007C7B0700887B0700957B0700D5
:104FC8009D7B0700B0B5A0B01E4C0546236800AF16
:104FD80003F00703022B0AD91B4B4FF486517B6160
:104FE800022320463B6107F1100246F03DF9A9680B
:104FF800283180233A46012009F09EFD236803F0FA
:105008000703022B14D96C468AB06A460F4B4FF43B
:105018001351C2E905374EF66023D3614FF400738C
:1050280013840B4B074842F8103F46F01DF9A5467C
:1050380000204CF05FFF074834F074FC8037BD4611
:10504800B0BD00BF30100020A67B0700B97B070069
:1050580004000001B0130020044B0B4023B9044B9B
:10506800994201D1FFF7AEBF704700BFF7FFFB1FA2
:10507800080004E02DE9F04F95B002AF0FF05EF89C
:10508800AE4C68B123685E070AD0AD4B4FF482512D
:10509800FB6302232046BB6307F1380246F0E4F8BD
:1050A80000214FF4004035F097F9A648A64B43601D
:1050B800A64B036109F068FFA548A64B4360A64BC1
:1050C800036109F061FF4FF0FF324FF0FF33A3484F
:1050D80034F04EFC11220221012003F069FADFF8B6
:1050E80080920028C9F8000028DA23685D0720D0DC
:1050F80049F099FB03686D4688B05B4202AA99495A
:10510800C2E9051303234FF4C25142F8103F8B48FC
:1051180046F0AAF82368AD4659070AD0924B07F122
:105128003802FB630223BB634FF48251834846F085
:105138009BF846F097F8002001F02AFC4FF0000A8F
:10514800DFF828828A4BC8E9003A0822414647F02E
:1051580003FE50450BDA23685807EAD049F063FB91
:1051680003686D4688B05B4202AA8249C8E7D9F84D
:1051780000003E1D07F10805534606227E490196A8
:10518800009547F006FF00280BDA23685A07D0D0AD
:1051980049F049FB03686D4688B05B4202AA77492B
:1051A800AEE7002200237449754834F01DFA3889A7
:1051B80007F1280B20235A4607F10C0109F0BCFC23
:1051C800236803F00703022B16D97A89EA4652BAF4
:1051D8008AB092B202ABDA614FF400721A841A46AE
:1051E80068495648C3E9051B674B4FF4135142F809
:1051F800103F46F039F8D54611220221012003F06C
:10520800D7F9DFF888A10028CAF8000020DA236857
:105218005B078ED049F007FB03686D4688B05B4298
:1052280002AA5049C2E9051303234FF4C25142F8B8
:10523800103F424846F018F82368AD465A073FF435
:1052480078AF494B07F120027B6202233B626BE790
:105258000023DFF83CC1C8E900C30822434947F0EE
:105268007BFD00280CDA236858073FF462AF49F049
:10527800DAFA03686D4688B05B4202AA3D49D1E775
:1052880045F2C353DAF800007B810822294647F02B
:1052980090FD002823680BDA59073FF44AAF49F01C
:1052A800C2FA03686D4688B05B4202AA3949B9E779
:1052B80003F00703022B0AD9374B4FF486517B6260
:1052C80002231E483B6207F1200245F0CDFF334818
:1052D80034F028FBDFF8A080DFF8A4A0D9F800009C
:1052E800002306224146CDE9005647F052FEB0F1B0
:1052F800000B1ADA23685B0713D049F094FA0368A5
:105308006C4688B05B4202AAD361042324490B4847
:10531800C2E9051B4FF4015142F8103F45F0A4FFC4
:10532800A5464C37BD46BDE8F08F00220023414614
:10533800504634F059F934F0CDFFCFE73010002053
:10534800327C0700F42F0020C14C0000070056D122
:10535800E02F002061500000080004E0B013002096
:10536800D02F0020577C0700777C0700D42F00201F
:105378000100EA609A7C0700187F0020AA7C0700D9
:1053880008130020BE7C070004000001DC2F002069
:105398000100EA66EE7C0700017D07006813002023
:1053A800147D070010B5094C0A44914200D110BD84
:1053B80011F8013B58400309E35C0001C0B24340C7
:1053C8001809205C1B01DBB25840EEE7557D070049
:1053D8002DE9F84300AF81468846154600F0BAF833
:1053E800C36804461BB943691A78002A55D10023BB
:1053F800E36063684B4558F8232009DB444B63613D
:10540800204600F08DF84FF0FF30BD46BDE8F88328
:10541800511C616116782D2EF0D1911C6161517873
:105428002D29A16004D1927862B901336360E5E760
:1054380041B9374B31462846636137F0C7F9002830
:10544800DED0A660A6682846314637F0BFF93A2E66
:10545800626900D030BB137813B9636801336360A5
:105468002368ABB12B783A2B12D02A480368590726
:105478000ED06D4688B06A46274BC2E9053603232D
:1054880042F8103F00234FF4C25102F01DFBAD4615
:10549800204600F045F83F20B7E75A1C42611B78C8
:1054A8008360CFE743783A2B0BD00023236113782E
:1054B80013B9636801336360204600F031F8A068CF
:1054C800A3E71378616812482BB9013189456160F7
:1054D80004DD58F82120C4E90420EAE760612D784A
:1054E8003A2D04D1204600F01BF828468DE72268A3
:1054F800002ACDD0074802685207C9D06D4688B047
:105508006A460649C2E90516032142F8101FBAE7A0
:10551800E3FD070058100020657D07007A7D07002D
:105528000268074B1A604268064B1A608268064B8D
:105538001A60C268054B1A600269054B1A60704709
:105548001407002010070020103000200C30002025
:105558000830002000487047F80600202DE9F04F79
:1055680091B0009302F004030293C2F3C203013323
:10557800840705460E46DDF868900392059340F0CF
:10558800BB81041D30B1072909D86FF01B0011B089
:10559800BDE8F08F01F00706341DC6F10806009B30
:1055A8004FF000084FF0040A591E4FF0FF334746EA
:1055B8000193C3465346CDF810800DB1009A22607E
:1055C8000598002800F3E8809848009A824203D39F
:1055D80097488242C0F0E080039AA4EB050E920738
:1055E8004FEA9E0000F103810F2F00F2B180002DD9
:1055F80000F0058107F140020DEB020C019A0CF84E
:10560800200C0CF8102C049801300490E7E07A285C
:105618005DD84B280ED8472859D829282DD82528B1
:1056280052D054D820287AD02338D0F1000B4BEB35
:10563800000B74E04C382E2849D8DFE800F0704899
:10564800484848484848484848484B4848484848CF
:1056580048484859484B4B595959704B6D48704800
:10566800184B184848827F4B48484B487F00002019
:105678004FF0000B4FF0040A38E001222A38C0B27C
:1056880002FA00F010EA0E0F49D110F0625C2FD137
:1056980010EA020B43D06046013C5444B4FBFAF4D0
:1056A8000AFB04F4002D61D0A3EB050CA444664565
:1056B800FFF46BAF002868D1042B47D159F8043B9D
:1056C8002360042304342AE0019A013A01924FF03E
:1056D800000B24E011F8010C6C2834D1002011F8DB
:1056E800023C83466C2BC5D14FF0080A5346D3E7DA
:1056F80009F1070929F00709073424F00704F9E834
:1057080002AB35B106982044B0423FF63EAFC4E93B
:1057180000AB4FF0000B08344FF0080A534611F85D
:10572800010F002878D0BBF1000F7FF470AF252857
:10573800F5D14FF0010B019B013301934FF0040A9F
:10574800ECE7584694E700208346A5E7082B02D0EB
:105758006FF015001BE709F1070929F00709F9E8B7
:105768000223C4E9002308230834D8E768B9042BC6
:1057780002D109F10409A4E7082BE9D109F10709C5
:1057880029F0070909F10809EDE7059A013A059298
:1057980059F8042B009210E7039A900720D54FF090
:1057A800010CA4EB050E4FEA9E00BEF5007FCFD298
:1057B8000F2FCDD8F5B107F140020DEB020E019A7B
:1057C800C0B20EF8200C0EF8102CBCF1000F3FF4FC
:1057D8001AAF60F07F000EF8200C08F101080137BD
:1057E800C5F108024FF6DA7E0434069297E74FF0C7
:1057F800000CDAE7BCF1000F01D00136EFE70298A0
:1058080002360028EBD10098CDE9063137F0A4F82C
:10581800DDE906310644E2E7631BB3F5806F97D2F2
:1058280045B9A6F10804E018B1E600BFE43A06005D
:1058380080450800029A9B0828602B709DF810305C
:10584800C2B1EB7085F80280B8F1000F05D00022D4
:1058580008A8C5F1010C97420ED14FF0000AC5F116
:1058680001030DF1200901930DF1300B574512D1B9
:10587800601B8CE66B70E5E710F8013B190608D54C
:1058880004EB0C0E764503F07F03FFF47EAE04F8BC
:10589800013B0132DFE7B8F1000F03D099F900208E
:1058A800002A17DB029BD3B11AF80B2004F8012B4E
:1058B8000022019B981820448642FFF466AE99F8AE
:1058C8000000009904F8010B20460392FBF78EF9BB
:1058D800039A14440AF1010A09F10109C6E799F883
:1058E800002055F822300093029B009845F822309A
:1058F80037F032F8421CDCE76FF00D0047E600BFD6
:105908002DE9F04F95B000AFBB61BB6F0446C3F300
:10591800C0038A4690F802B07A623B6141B9457883
:1059280000780BEB80002044554517D8A0EB040AFB
:10593800E3787B61BBF1000F02D0BB6FD80716D4A8
:105948007B6953BB7B6A1BB151462046BA699847AD
:10595800554628465437BD46BDE8F08F461C3046AC
:1059680036F0FAFF013030440AF1010ADCE7237807
:1059780062683B629B00FB603B6AFA6104EB830947
:105988007B6A002B40F00381C8460026554609EB88
:105998000B0AD04555D1D94413E0BB6F9907D1D52F
:1059A800237899463B629B00FB60636804EB890996
:1059B800FB617B6A002B7ED15546BBF1000F53D1AA
:1059C8005E46BB6F13F0050F0CBF4FF0020B4FF094
:1059D800010B7B6909EB430ABB6F03F002037B628F
:1059E800D145B6D019F8021B19F8013C54F82380A8
:1059F800AB4B984502D3AB4B98453CD33B69002B46
:105A080046D0F86945F064FC002841D0A6480368F0
:105A180013F0060F13D0E8468AB06A46A34B5361C9
:105A2800FB69C2E906314FF400731384A04B42F8B6
:105A3800103F00234FF4125102F046F8C546023DCC
:105A4800CEE718F8013B54F8230036F085FFFB6FCA
:105A580001303BB1D7F880309E423EBFFB6F23F840
:105A680016000136054494E7BB6F13F004061CBF0B
:105A78007E6AD944A5E73B6923B1F86945F028FC5B
:105A88000028C3D1BB6FDA0705D4A5EB0B05A7E740
:105A98007B6A002BA4D0404636F05EFFFB6F43B113
:105AA800D7F880309E423FBFFA6F431C22F8163069
:105AB8000136054494E7BBF1000F6ED0BB6F13F0BD
:105AC80004066DD0D846002607F140005A464946DC
