:020000040000FA
:1000000080230220A51901005FB206005D190100DE
:100010005D1901005D1901005D1901005D19010004
:100020000000000000000000000000006D09010059
:100030005D19010000000000110901005D190100B7
:10004000FD090100FD090100FD090100FD09010094
:10005000FD090100FD090100FD090100FD09010084
:10006000FD090100FD090100FD090100FD09010074
:10007000FD090100FD090100FD090100FD09010064
:10008000FD090100FD090100FD090100FD09010054
:10009000FD090100FD090100FD090100FD09010044
:1000A000FD090100FD090100FD090100FD09010034
:1000B000FD090100FD090100FD090100FD09010024
:1000C000FD090100FD090100FD090100FD09010014
:1000D000FD090100FD090100FD090100FD09010004
:1000E000FD090100FD090100FD090100FD090100F4
:1000F000FD090100FD090100FD090100FD090100E4
:10010000FD090100FD090100FD090100FD090100D3
:10011000FD090100FD090100FD090100FD090100C3
:10012000FD090100FD090100FD090100FD090100B3
:10013000FD090100FD090100FD090100FD090100A3
:10014000FD090100FD090100FD090100FD09010093
:10015000FD090100FFFFFFFF4FF0FF0C1CEAD0522A
:100160001EBF1CEAD15392EA0C0F93EA0C0F6FD01A
:100170001A4480EA010C400218BF5FEA41211ED0F8
:100180004FF0006343EA501043EA5111A0FB0131E4
:100190000CF00040B1F5000F3EBF490041EAD371B9
:1001A0005B0040EA010062F17F02FD2A1DD8B3F135
:1001B000004F40EBC25008BF20F00100704790F0A4
:1001C000000F0CF0004C08BF49024CEA502040EAF6
:1001D00051207F3AC2BFD2F1FF0340EAC2507047BC
:1001E00040F400004FF00003013A5DDC12F1190FFA
:1001F000DCBF00F000407047C2F10002410021FA6C
:1002000002F1C2F1200200FA02FC5FEA310040F183
:10021000000053EA4C0308BF20EADC70704792F0FC
:10022000000F00F0004C02BF400010F4000F013A34
:10023000F9D040EA0C0093F0000F01F0004C02BF2F
:10024000490011F4000F013BF9D041EA0C018FE79E
:100250000CEAD15392EA0C0F18BF93EA0C0F0AD0A4
:1002600030F0004C18BF31F0004CD8D180EA0100CA
:1002700000F00040704790F0000F17BF90F0004F63
:10028000084691F0000F91F0004F14D092EA0C0F45
:1002900001D142020FD193EA0C0F03D14B0218BFD8
:1002A000084608D180EA010000F0004040F0FE401E
:1002B00040F40000704740F0FE4040F440007047BA
:1002C00081F0004102E000BF83F0004330B54FEA07
:1002D00041044FEA430594EA050F08BF90EA020F74
:1002E0001FBF54EA000C55EA020C7FEA645C7FEA07
:1002F000655C00F0E2804FEA5454D4EB5555B8BF2A
:100300006D420CDD2C4480EA020281EA030382EA9A
:10031000000083EA010180EA020281EA0303362D2C
:1003200088BF30BD11F0004F4FEA01314FF4801CFF
:100330004CEA113102D0404261EB410113F0004F11
:100340004FEA03334CEA133302D0524263EB4303C8
:1003500094EA050F00F0A780A4F10104D5F1200E66
:100360000DDB02FA0EFC22FA05F2801841F10001C1
:1003700003FA0EF2801843FA05F359410EE0A5F195
:1003800020050EF1200E012A03FA0EFC28BF4CF0C6
:10039000020C43FA05F3C01851EBE37101F000457C
:1003A00007D54FF0000EDCF1000C7EEB00006EEB89
:1003B0000101B1F5801F1BD3B1F5001F0CD3490813
:1003C0005FEA30004FEA3C0C04F101044FEA44526A
:1003D00012F5800F80F09A80BCF1004F08BF5FEAF1
:1003E000500C50F1000041EB045141EA050130BDD1
:1003F0005FEA4C0C404141EB0101013C28BFB1F5E3
:10040000801FE9D291F0000F04BF01460020B1FA2D
:1004100081F308BF2033A3F10B03B3F120020CDA00
:100420000C3208DD02F1140CC2F10C0201FA0CF0DE
:1004300021FA02F10CE002F11402D8BFC2F1200C43
:1004400001FA02F120FA0CFCDCBF41EA0C019040F9
:10045000E41AA2BF01EB0451294330BD6FEA040442
:100460001F3C1CDA0C340EDC04F11404C4F120022D
:1004700020FA04F001FA02F340EA030021FA04F33F
:1004800045EA030130BDC4F10C04C4F1200220FA96
:1004900002F001FA04F340EA0300294630BD21FAD4
:1004A00004F0294630BD94F0000F83F4801306BF9A
:1004B00081F480110134013D4EE77FEA645C18BF8E
:1004C0007FEA655C29D094EA050F08BF90EA020F25
:1004D00005D054EA000C04BF1946104630BD91EA1D
:1004E000030F1EBF0021002030BD5FEA545C05D120
:1004F0004000494128BF41F0004130BD14F580045F
:100500003CBF01F5801130BD01F0004545F0FE41D2
:1005100041F470014FF0000030BD7FEA645C1ABF07
:10052000194610467FEA655C1CBF0B46024650EA3E
:10053000013406BF52EA033591EA030F41F400216A
:1005400030BD00BF90F0000F04BF0021704730B5F0
:100550004FF4806404F132044FF000054FF00001C5
:1005600050E700BF90F0000F04BF0021704730B586
:100570004FF4806404F1320410F0004548BF40425B
:100580004FF000013EE700BF42004FEAE2014FEAB0
:1005900031014FEA02701FBF12F07F4393F07F4F8B
:1005A00081F06051704732F07F4208BF704793F08E
:1005B0007F4F04BF41F40021704730B54FF46074A1
:1005C00001F0004521F000411CE700BF50EA0102A4
:1005D00008BF704730B54FF000050AE050EA01024D
:1005E00008BF704730B511F0004502D5404261EBBD
:1005F00041014FF4806404F132045FEA915C3FF4FE
:10060000D8AE4FF003025FEADC0C18BF03325FEA9A
:10061000DC0C18BF033202EBDC02C2F1200300FA4B
:1006200003FC20FA02F001FA03FE40EA0E0021FA70
:1006300002F11444BDE600BF70B54FF0FF0C4CF45E
:10064000E06C1CEA11541DBF1CEA135594EA0C0F10
:1006500095EA0C0F00F0DEF82C4481EA030621EA4B
:100660004C5123EA4C5350EA013518BF52EA033586
:1006700041F4801143F4801338D0A0FB02CE4FF038
:100680000005E1FB02E506F00042E0FB03E54FF068
:100690000006E1FB03569CF0000F18BF4EF0010E60
:1006A000A4F1FF04B6F5007F64F5407404D25FEA5C
:1006B0004E0E6D4146EB060642EAC62141EA55510F
:1006C0004FEAC52040EA5E504FEACE2EB4F1FD0C51
:1006D00088BFBCF5E06F1ED8BEF1004F08BF5FEACF
:1006E000500E50F1000041EB045170BD06F0004681
:1006F00046EA010140EA020081EA0301B4EB5C042E
:10070000C2BFD4EB0C0541EA045170BD41F4801125
:100710004FF0000E013C00F3AB8014F1360FDEBF4A
:10072000002001F0004170BDC4F10004203C35DA26
:100730000C341BDC04F11404C4F1200500FA05F3A9
:1007400020FA04F001FA05F240EA020001F000424A
:1007500021F0004110EBD37021FA04F642EB0601C0
:100760005EEA430E08BF20EAD37070BDC4F10C04EA
:10077000C4F1200500FA04F320FA05F001FA04F2AE
:1007800040EA020001F0004110EBD37041F100019A
:100790005EEA430E08BF20EAD37070BDC4F12005A5
:1007A00000FA05F24EEA020E20FA04F301FA05F20D
:1007B00043EA020321FA04F001F0004121FA04F2B5
:1007C00020EA020000EBD3705EEA430E08BF20EA85
:1007D000D37070BD94F0000F0FD101F000464000BF
:1007E00041EB010111F4801F08BF013CF7D041EA41
:1007F000060195F0000F18BF704703F00046520045
:1008000043EB030313F4801F08BF013DF7D043EA15
:100810000603704794EA0C0F0CEA135518BF95EACB
:100820000C0F0CD050EA410618BF52EA4306D1D152
:1008300081EA030101F000414FF0000070BD50EA71
:10084000410606BF1046194652EA430619D094EAFB
:100850000C0F02D150EA013613D195EA0C0F05D1E5
:1008600052EA03361CBF104619460AD181EA030139
:1008700001F0004141F0FE4141F470014FF00000F1
:1008800070BD41F0FE4141F4780170BD70B54FF08C
:10089000FF0C4CF4E06C1CEA11541DBF1CEA13550C
:1008A00094EA0C0F95EA0C0F00F0A7F8A4EB0504EE
:1008B00081EA030E52EA03354FEA013100F08880E5
:1008C0004FEA03334FF0805545EA131343EA1263AE
:1008D0004FEA022245EA111545EA10654FEA002663
:1008E0000EF000419D4208BF964244F1FD0404F51C
:1008F000407402D25B084FEA3202B61A65EB030578
:100900005B084FEA32024FF480104FF4002CB6EB34
:10091000020E75EB030E22BFB61A754640EA0C00B4
:100920005B084FEA3202B6EB020E75EB030E22BFF4
:10093000B61A754640EA5C005B084FEA3202B6EB35
:10094000020E75EB030E22BFB61A754640EA9C00F4
:100950005B084FEA3202B6EB020E75EB030E22BFC4
:10096000B61A754640EADC0055EA060E18D04FEA82
:10097000051545EA16754FEA06164FEAC30343EA22
:1009800052734FEAC2025FEA1C1CC0D111F4801FEF
:100990000BD141EA00014FF000004FF0004CB6E7E8
:1009A00011F4801F04BF01430020B4F1FD0C88BF87
:1009B000BCF5E06F3FF6AFAEB5EB030C04BFB6EB92
:1009C000020C5FEA500C50F1000041EB045170BD85
:1009D0000EF0004E4EEA113114EB5C04C2BFD4EBB2
:1009E0000C0541EA045170BD41F480114FF0000E36
:1009F000013C90E645EA060E8DE60CEA135594EAB2
:100A00000C0F08BF95EA0C0F3FF43BAF94EA0C0FB4
:100A10000AD150EA01347FF434AF95EA0C0F7FF429
:100A200025AF104619462CE795EA0C0F06D152EA7D
:100A300003353FF4FDAE1046194622E750EA410661
:100A400018BF52EA43067FF4C5AE50EA41047FF472
:100A50000DAF52EA43057FF4EBAE12E74FF0FF3CD7
:100A600006E000BF4FF0010C02E000BF4FF0010CA8
:100A70004DF804CD4FEA410C7FEA6C5C4FEA430C21
:100A800018BF7FEA6C5C1BD001B050EA410C0CBF70
:100A900052EA430C91EA030F02BF90EA020F0020D2
:100AA000704710F1000F91EA030F58BF994208BF39
:100AB00090422CBFD8176FEAE37040F001007047F6
:100AC0004FEA410C7FEA6C5C02D150EA013C07D14D
:100AD0004FEA430C7FEA6C5CD6D152EA033CD3D098
:100AE0005DF8040B704700BF8446104662468C4692
:100AF0001946634600E000BF01B5FFF7B7FF0028C5
:100B000048BF10F1000F01BD4DF808EDFFF7F4FFED
:100B10000CBF012000205DF808FB00BF4DF808ED78
:100B2000FFF7EAFF34BF012000205DF808FB00BF9B
:100B30004DF808EDFFF7E0FF94BF012000205DF8BD
:100B400008FB00BF4DF808EDFFF7CEFF94BF012072
:100B500000205DF808FB00BF4DF808EDFFF7C4FF6B
:100B600034BF012000205DF808FB00BF4A0011D20D
:100B700012F5001211D20DD56FF47873B3EB6252F7
:100B80000ED44FEAC12343F0004343EA505323FA03
:100B900002F070474FF00000704750EA013002D178
:100BA0004FF0FF3070474FF0000070474FEA4102AE
:100BB000B2F1E04324BFB3F5001CDCF1FE5C0DD9BB
:100BC00001F0004C4FEAC0024CEA5070B2F1004F05
:100BD00040EB830008BF20F00100704711F0804F08
:100BE00021D113F13872BCBF01F00040704741F4CD
:100BF00080114FEA5252C2F11802C2F1200C10FAD1
:100C00000CF320FA02F018BF40F001004FEAC123B4
:100C10004FEAD32303FA0CFC40EA0C0023FA02F358
:100C20004FEA4303CCE77FEA625307D150EA01332E
:100C30001EBF4FF0FE4040F44000704701F00040FE
:100C400040F0FE4040F40000704700BF80F00040DC
:100C500002E000BF81F0004142001FBF5FEA410394
:100C600092EA030F7FEA226C7FEA236C6AD04FEA94
:100C70001262D2EB1363C1BFD218414048404140D9
:100C8000B8BF5B42192B88BF704710F0004F40F48B
:100C9000000020F07F4018BF404211F0004F41F4A7
:100CA000000121F07F4118BF494292EA030F3FD073
:100CB000A2F1010241FA03FC10EB0C00C3F1200386
:100CC00001FA03F100F0004302D5494260EB400015
:100CD000B0F5000F13D3B0F1807F06D340084FEA80
:100CE000310102F10102FE2A51D2B1F1004F40EB75
:100CF000C25008BF20F0010040EA030070474900DD
:100D000040EB0000013A28BFB0F5000FEDD2B0FA79
:100D100080FCACF1080CB2EB0C0200FA0CF0AABF9C
:100D200000EBC25052421843BCBFD040184370473A
:100D300092F0000F81F4000106BF80F40000013240
:100D4000013BB5E74FEA41037FEA226C18BF7FEA17
:100D5000236C21D092EA030F04D092F0000F08BF59
:100D60000846704790EA010F1CBF0020704712F040
:100D70007F4F04D1400028BF40F00040704712F17F
:100D800000723CBF00F50000704700F0004343F0E4
:100D9000FE4040F4000070477FEA226216BF08461A
:100DA0007FEA23630146420206BF5FEA412390EADD
:100DB000010F40F4800070474FF0000304E000BFD3
:100DC00010F0004348BF40425FEA000C08BF704784
:100DD00043F0964301464FF000001CE050EA010248
:100DE00008BF70474FF000030AE000BF50EA01025D
:100DF00008BF704711F0004302D5404261EB41014A
:100E00005FEA010C02BF84460146002043F0B6436E
:100E100008BFA3F18053A3F50003BCFA8CF2083A93
:100E2000A3EBC25310DB01FA02FC634400FA02FC9C
:100E3000C2F12002BCF1004F20FA02F243EB0200A3
:100E400008BF20F00100704702F1200201FA02FC05
:100E5000C2F1200250EA4C0021FA02F243EB0200F8
:100E600008BF20EADC7070474FEA4002B2F1FE4F43
:100E70000FD34FF09E03B3EB12620DD94FEA00235C
:100E800043F0004310F0004F23FA02F018BF404235
:100E900070474FF00000704712F1610F01D142021C
:100EA00005D110F0004008BF6FF0004070474FF0D0
:100EB000000070477BB972B90029BEBF00204FF017
:100EC000004106E008BF00281CBF6FF000414FF052
:100ED000FF3000F075B8ADF1080C6DE904CE0029C3
:100EE00009DB002B1ADB01F0B4F8DDF804E0DDE9E2
:100EF000022304B07047404261EB4101002B1BDB31
:100F000001F0A7F8DDF804E0DDE9022304B0404277
:100F100061EB4101524263EB43037047524263EB82
:100F2000430301F096F8DDF804E0DDE9022304B0A4
:100F3000404261EB41017047524263EB430301F0D1
:100F400088F8DDF804E0DDE9022304B0524263EBE7
:100F50004303704753B94AB9002908BF00281CBF92
:100F60004FF0FF314FF0FF3000F02AB8ADF1080C20
:100F70006DE904CE01F06DF8DDF804E0DDE902234F
:100F800004B07047D0B500220B4B06460F46FFF762
:100F900053FBFFF7EBFD0446FFF7D4FA0022074BA3
:100FA000FFF74AFB02460B4630463946FFF78CF9FD
:100FB000FFF7DCFD2146D0BD0000F03D0000F04110
:100FC000704700BF844641EA000313F0030349D190
:100FD000403A23D30B6803604B6843608B6883609F
:100FE000CB68C3600B6903614B6943618B698361A3
:100FF000CB69C3610B6A03624B6A43628B6A83628B
:10100000CB6AC3620B6B03634B6B43638B6B836372
:10101000CB6BC36340304031403ADBD230320BD32C
:101020000B6803604B6843608B688360CB68C36068
:1010300010301031103AF3D20C3205D351F8043B82
:1010400040F8043B043AF9D2043208D0D2071CBF5E
:1010500011F8013B00F8013B01D30B880380604687
:10106000704700BF082A13D38B07B1D010F00303D9
:10107000AED0C3F10403D21ADB071CBF11F8013B49
:1010800000F8013BA4D331F8023B20F8023B9FE774
:10109000043AD9D3013A11F8013B00F8013BF9D2E7
:1010A0000B7803704B7843708B7883706046704781
:1010B00080EA010C1CF0030F37D110F0030C20F074
:1010C000030021F0030150F8042B08BF51F8043B42
:1010D0000ED08CF0030C6FF07F434FEACC0C23FA58
:1010E0000CFC51F8043B42EA0C0243EA0C0300BF3B
:1010F000A2F1013C9A4201BF2CEA020C1CF0803F95
:1011000050F8042B51F8043BF2D04FEA02604FEA4A
:101110001222012828BFB0EB036F08BF1B0AF4D0CE
:1011200003F0FF03000EC01A704710F0030F0AD03F
:1011300010F8012B11F8013B012A28BF9A42F4D084
:10114000A2EB030070474DF8045D50F8042B01F04A
:10115000030521F0030151F8043B022D26D04DD8A0
:1011600022F07F45B5EB132FA2F1013C2CEA020CD3
:101170000DD11CF0803C08BF51F8043B0AD185EA30
:101180000205B5EB036F0CD150F8042BE8E74FEAEA
:1011900013235BE03CF07F4C54D10B784FEA12658F
:1011A00054E04FEA126503F0FF034FE04FEA0245B7
:1011B000A2F1013C4FEA15452CEA020CB5EB134FA6
:1011C00018D11CF0803C08BF51F8043B07D185EAD8
:1011D0000205B5EB034F09D150F8042BE6E75FEAAF
:1011E0000C4C2FD10B884FEA12452FE04FEA0343F6
:1011F0004FEA12454FEA134328E000BF02F0FF0513
:10120000B5EB136FA2F1013C2CEA020C0DD11CF0DE
:10121000803C08BF51F8043B0AD185EA0205B5EBD2
:10122000032F0AD150F8042BE8E74FEA13630DE0CF
:1012300012F0FF0F06D051F8043B4FEA122523F0BD
:101240007F4303E04FF0000020BC704705F0FF0231
:1012500003F0FF00012828BF904204BF2D0A1B0A9B
:10126000F4D0A2EB000020BC704700BF4FEA410C55
:101270007FEA6C5C02D150EA013C0AD14FEA430C90
:101280007FEA6C5C02D152EA033C02D14FF00000CD
:1012900070474FF0010070474FEA410212F500120B
:1012A00015D211D56FF47873B3EB625212D94FEAAD
:1012B000C12343F0004343EA505311F0004F23FA97
:1012C00002F018BF404270474FF00000704750EAEC
:1012D000013005D111F0004008BF6FF000407047A9
:1012E0004FF00000704700BF2DE9F14F03F11C04DF
:1012F00002EB840C4FEA930B8A68CB680868496854
:1013000000F046F93CE9F0006040694072407B40E3
:101310000BF1060E4EE083EA134480EA134582EA9D
:10132000134746BA96EA3444604000F00F1684EA48
:10133000063420F00F1684EA161054BA94EA010617
:10134000724002F00F1486EA043622F00F1486EA87
:1013500014124CBA6540694001F00F1485EA043557
:1013600021F00F1485EA14115CBA67407B4003F04A
:101370000F1487EA043723F00F1487EA141344BAD2
:1013800044404DBA4D4056BA56405FBA5F4087EA76
:10139000174886EA174B84EA17464FEA38488BEA23
:1013A0001B4485EA1B4788EA1B4580EA34406940B4
:1013B00072407B4000F0703400F0803500F00F3058
:1013C00040EA440040EAD50080EA900404F0332467
:1013D00080EA8400604001F0703401F0803501F053
:1013E0000F3141EA440141EAD50181EA910404F058
:1013F000332481EA8401614002F0703402F08035C8
:1014000002F00F3242EA440242EAD50282EA920432
:1014100004F0332482EA8402624003F0703403F063
:10142000803503F00F3343EA440343EAD50383EAEC
:10143000930404F0332483EA84036340C943DB4309
:1014400081EA000483EA044686EA020183EA014352
:1014500082EA334583EA14435C4084EA00077FEA6A
:10146000040A8AEA024A8AEA010B87EA11488AEAF0
:10147000374A80EA060181EA1A418AEA030A04EA45
:101480000A00454088EA040707EA0B0041408AEA5F
:101490000B0608EA060084EA34428AEA3A4602EA7F
:1014A000060358404540414087EA37438BEA3B40BA
:1014B00003EA000985EA090582EA0309464006EACB
:1014C0000906714085EA010005EA3546464006EA0C
:1014D000314181EA304181EA364606EA304686EA01
:1014E000354634400F4086EA010508EA050886EAD9
:1014F0003640024088EA020881EA314213405C40EB
:1015000080EA020309EA030987EA0907674088EAD3
:10151000040806EA0A0601EA0B018AEA0B042540E0
:101520008AEA3A44204045408BEA3B4B02EA0B02F0
:10153000564084EA0B04234059406E40694087EAD4
:10154000364080EA384080EA060380EA104481EAA7
:10155000134585EA344585EA17427D4082EA3541E4
:1015600080EA05403CE9F0006040694072407B4001
:10157000BEF1010E3FF6CFAE20BC00F05FF8286050
:101580006960AA60EB60BDE8F08F00BF00F000BAB0
:1015900080EA101404F0F01480EA0410604081EA3C
:1015A000111404F0F01481EA0411614082EA12146B
:1015B00004F0F01482EA0412624083EA131404F087
:1015C000F01483EA0413634080EA102404F47F4497
:1015D00080EA0420604081EA112404F47F4481EA17
:1015E0000421614082EA122404F47F4482EA042246
:1015F000624083EA132404F47F4483EA04236340B3
:1016000081EA500404F0553480EA4400614083EAE2
:10161000520404F0553482EA4402634082EA9004A2
:1016200004F0333480EA8400624083EA910404F0D9
:10163000333481EA84016340704700BF82EA90043A
:1016400004F0333480EA8400624083EA910404F0B9
:10165000333481EA8401634081EA500404F0553454
:1016600080EA4400614083EA520404F0553482EA7F
:101670004402634080EA102404F47F4480EA04209A
:10168000604081EA112404F47F4481EA042161402E
:1016900082EA122404F47F4482EA0422624083EA4C
:1016A000132404F47F4483EA0423634080EA101483
:1016B00004F0F01480EA0410604081EA111404F090
:1016C000F01481EA0411614082EA121404F0F0146B
:1016D00082EA0412624083EA131404F0F01483EAED
:1016E00004136340704700BF2DE9F14F94464FEA61
:1016F000930B8A68CB6808684968FFF749FF0BF1CC
:10170000060E33E083EA134480EA134582EA134766
:1017100046BA96EA3444604000F00F1684EA063474
:1017200020F00F1684EA161054BA94EA01067240AB
:1017300002F00F1486EA043622F00F1486EA14121F
:101740004CBA6540694001F00F1485EA043521F078
:101750000F1485EA14115CBA67407B4003F00F1444
:1017600087EA043723F00F1487EA1413BCE8F0006B
:101770006040694072407B4000F0E03400F010357A
:1017800000F00F3040EA540040EAC50080EA9004BF
:1017900004F0332480EA8400604001F0E03401F07A
:1017A000103501F00F3141EA540141EAC50181EAE7
:1017B000910404F0332481EA8401614002F0E034B2
:1017C00002F0103502F00F3242EA540242EAC5023A
:1017D00082EA920404F0332482EA8402624003F035
:1017E000E03403F0103503F00F3343EA540343EAC7
:1017F000C50383EA930404F0332483EA840363403B
:1018000081EA324787EA134581EA354690EA0604C1
:1018100084EA034B82EA1B4280EA044484EA0544DA
:1018200083EA144A85EA14448BEA044B84EA374479
:1018300081EA0B4181EA164104EA0A00454082EA46
:1018400004082BEA080041408AEA0B0602EA060077
:1018500084EA34438AEA3A4603EA06077840454078
:10186000414088EA38478BEA3B4007EA000985EAAD
:10187000090583EA0709464006EA0906714085EA38
:10188000010005EA3546464006EA314181EA304129
:1018900081EA364606EA304686EA3546344008EAAA
:1018A000010886EA01052A4086EA364003405A408C
:1018B00081EA31431F407C4080EA030709EA0709B7
:1018C00088EA0908544088EA020806EA0A0601EA9A
:1018D0000B018AEA0B0215408AEA3A421040454061
:1018E0008BEA3B4003405E404240174079404D4008
:1018F0004E40E443F64386EA18435D4085EA0540DE
:1019000083EA134386EA034183EA384284EA1143B7
:1019100083EA04435FEA3343BEF1010E3FF6F2AEC1
:101920001ED4BCE8F0006040694072407B4020BC9F
:10193000FFF784FE28606960AA60EB60BDE8F08F65
:101940002DE9E0414FF2F00280EA1031114080EAC7
:101950000130484041088208C3084FF0000E4FE7AD
:1019600000F0113001F0113102F0113203F01133A7
:1019700040EA410040EA820040EAC3004FF2F00230
:1019800080EA1031114080EA01304840BDE8E08132
:101990002DE9F04F02F11C050646074600EB8508CD
:1019A00051F8040B043A46F8040BF9D14FF0010C3E
:1019B000FFF7C6FF5FEA302080EA0C001ECF4140EF
:1019C0004A4053405C401EC62000464517D04FEAAF
:1019D0004C0C1CF4807F18BFACF1E50C2C2DE7D02B
:1019E0003C2D06D1FFF7ACFF06CF41404A4006C66A
:1019F000100006CF41404A4006C61000D8E736E93D
:101A00000F00FFF7C5FD043D86E80F00F7D1BDE8E4
:101A1000F08F00BF2DE9F04FB0E8FE0783B02DE94D
:101A2000010790E8005F4FF00A0006900198DB196B
:101A30009CEA030C18EB3C4897EA080713EB375372
:101A400093EA3C4C18EB3C6898EA375724189EEA16
:101A5000040E19EB3E4990EA090014EB305494EA65
:101A60003E4E19EB3E6999EA3050CDE90489DDE933
:101A7000028949199AEA010A18EB3A4895EA0805D9
:101A800011EB355191EA3A4A18EB3A6898EA355524
:101A900092199BEA020B19EB3B4996EA090612EBF5
:101AA000365292EA3B4B19EB3B6999EA365613EBF7
:101AB000706393EA3B6B18EB3B4898EA706013EB5A
:101AC000305393EA3B4B5FEA3B6B18EB0B0898EA09
:101AD00030505FEA706014EB756494EA3C6C19EB6B
:101AE0003C4999EA756514EB355494EA3C4C5FEA3D
:101AF0003C6C19EB0C0999EA35555FEA7565CDE93F
:101B00000289DDE9048911EB766191EA3E6E18EBFA
:101B10003E4898EA766611EB365191EA3E4E5FEA0E
:101B20003E6E18EB0E0898EA36565FEA766612EBC0
:101B3000776292EA3A6A19EB3A4999EA776712EBC7
:101B4000375292EA3A4A5FEA3A6A19EB0A0999EA85
:101B500037575FEA77670190069801387FF465AFE1
:101B600001BC80E8005FBDE8000700E9FE0703B0A4
:101B7000BDE8F08F30B44FF0000310F8014B11F8BE
:101B8000015B013A84EA050443EA0403F5D1A3F1B9
:101B900001034FEAD37030BC704700BF4FF0000321
:101BA00010F8012B013943EA0203F9D1A3F1010333
:101BB0004FEAD370704700BF30B411F8014B12F8F0
:101BC000015B6C4000F8014B013BF6D130BC704723
:101BD0002DE9F14FF8C892E8005E19EB03095AEBC2
:101BE000040A5BEB050B5CEB060C4EEB070E91E871
:101BF000E001A9FB0502AAFB0543E9FB6624EAFB19
:101C00006634A9FB0765E9FB6845B1E80003EBFB17
:101C10006836ECFB6846EEFB6856ABFB0987ECFBCD
:101C20006957EEFB696791E80202EAFB6148EBFB4A
:101C30006158ECFB6168EEFB61784FF00001EAFB54
:101C40000951EBFB6961ECFB6971EEFB69814FF4B3
:101C5000A03C4FEA154949EA06495FF0000AE9FB52
:101C60000C0A4FEA164646EA0746E6FB6C2A4FEA9C
:101C7000174747EA0847E7FB6C3A4FEA184848EA33
:101C80000148E8FB6C4AADB25544AF0805F00305C6
:101C900007EB8707C01952F1000153F1000254F11C
:101CA000000345F1000420BC1FC5BDE8F08F00BF54
:101CB00030B490E83C10511D53F1000154F1000183
:101CC00055F100014CF100014FEA9101494201F048
:101CD0000501521853F1000354F1000455F10005B9
:101CE0004CF1000C0CF0030C80E83C1030BC704749
:101CF0002DE9F04F90E8F00F00F140004FF0040E96
:101D000059E0F0B4826BC36B04680525242687591B
:101D10003C444FEA724787EAF24787EA92273C44FD
:101D200042684FEAF21787EAB24787EAD2073C4493
:101D300040F8044B032D08BF6FF01B0687593A4447
:101D40004FEA734787EAF34787EA93273A444368A1
:101D50004FEAF31787EAB34787EAD3073A4440F8D4
:101D6000042B87593B444FEA744787EAF44787EAD4
:101D700094273B4444684FEAF41787EAB44787EA5C
:101D8000D4073B4440F8043B013DC0D1A0F13C00E6
:101D9000076A3C444FEA724787EAF24787EA92278C
:101DA0003C4402684FEAF21787EAB24787EAD20753
:101DB0003C44C463F0BC4FF0020288EA781C8CEA11
:101DC000F84C0BEBBC1C8AEA090303EA080383EA1C
:101DD0000A039C4450F8043B9C4451F8043B9C4447
:101DE000674444EA050B0BEA060B04EA05034BEAD9
:101DF000030BE34484EAF42383EA34530BEBB30B81
:101E000087EA771C8CEAF74C0AEBBC1C89EA0803CA
:101E100003EA070383EA09039C4450F8043B9C440B
:101E200051F8043B9C4466444BEA040A0AEA050A5A
:101E30000BEA04034AEA030AE2448BEAFB2383EA3F
:101E40003B530AEBB30A86EA761C8CEAF64C09EBA4
:101E5000BC1C88EA070303EA060383EA08039C44E0
:101E600050F8043B9C4451F8043B9C4465444AEAC6
:101E70000B0909EA04090AEA0B0349EA0309E144E8
:101E80008AEAFA2383EA3A5309EBB30985EA751C17
:101E90008CEAF54C08EBBC1C87EA060303EA050351
:101EA00083EA07039C4450F8043B9C4451F8043BEC
:101EB0009C44644449EA0A0808EA0B0809EA0A0350
:101EC00048EA0308E04489EAF92383EA395308EB36
:101ED000B30884EA741C8CEAF44C07EBBC1C86EA59
:101EE000050303EA040383EA06039C4450F8043B19
:101EF0009C4451F8043B9C44E34448EA090707EA40
:101F00000A0708EA090347EA0307674488EAF8234F
:101F100083EA385307EBB3078BEA7B1C8CEAFB4C54
:101F200006EBBC1C85EA040303EA0B0383EA050302
:101F30009C4450F8043B9C4451F8043B9C44E244CC
:101F400047EA080606EA090607EA080346EA03061E
:101F5000664487EAF72383EA375306EBB3068AEA37
:101F60007A1C8CEAFA4C05EBBC1C84EA0B0303EAEE
:101F70000A0383EA04039C4450F8043B9C4451F850
:101F8000043B9C44E14446EA070505EA080506EAE5
:101F9000070345EA0305654486EAF62383EA3653D8
:101FA00005EBB30589EA791C8CEAF94C04EBBC1CFF
:101FB0008BEA0A0303EA090383EA0B039C4450F803
:101FC000043B9C4451F8043B9C44E04445EA06042D
:101FD00004EA070405EA060344EA0304644485EAC4
:101FE000F52383EA355304EBB304013A7FF4E5AEFD
:101FF000A0F14000BEF1010E7FF483AEA0F1400CD1
:102000009CE80F00001949199219DB19ACE80F0080
:102010009CE80F004044494452445B44ACE80F0044
:10202000BDE8F08F38B50022002304460D46FEF7C8
:1020300075FD28B920462946BDE83840FEF7A2BF05
:10204000204605F10041FEF79DFF404261EB410152
:1020500038BD2DE9F04786468C460846089E154651
:1020600074461946002B40F0C1808542B2FA82F2D4
:1020700045D94AB1C2F1200300FA02FC95409440D0
:102080002EFA03F343EA0C0C4FEA154EA8B2230CC8
:10209000BCFBFEF80EFB18CC08FB00F943EA0C432E
:1020A000994528D9EB1808F1FF3704D2994502D990
:1020B000A8F102072B44A3EB0903A4B2B3FBFEFC77
:1020C0000EFB1C330CFB00F044EA0344A04214D97D
:1020D0002C190CF1FF3304D2A04202D9ACF1020357
:1020E0002C44241A43EA07401EB1D4400023346034
:1020F0007360BDE8F0874746DDE76346F1E792BBD2
:10210000431B01214FEA154EAFB2200CB3FBFEFC7E
:102110000EFB1C330CFB07F840EA0343984561D9DA
:10212000EB180CF1FF3004D2984502D9ACF1020053
:102130002B44A3EB0803A4B2B3FBFEFC0EFB1C3341
:102140000CFB07F744EA0344A7424DD92C190CF1C4
:10215000FF3304D2A74202D9ACF102032C44E41BA2
:1021600043EA0040C0E7C2F120039540944020FAC2
:1021700003F12EFA03F34FEA154E9040AFB203433A
:10218000B1FBFEFC0EFB1C10190C0CFB07F841EA1E
:102190000041884522D969180CF1FF3004D28845E6
:1021A00002D9ACF102002944A1EB08019BB2B1FBBA
:1021B000FEFC0EFB1C110CFB07F743EA01439F4298
:1021C0000ED9EB180CF1FF3104D29F4202D9ACF1C9
:1021D00002012B44DB1B41EA004193E76046E3E741
:1021E0006146F7E76046A4E76346B8E7834206D94D
:1021F00016B9002108467CE7C6E900E0F9E7B3FA22
:1022000083F78FB9834201D3724508D8BEEB02042D
:1022100060EB030301209C461EB9002169E73846A4
:10222000FAE7C6E9004CF8E7C7F1200CBB400EFA0C
:1022300007F522FA0CF42EFA0CF1BA401C4320FAEE
:102240000CF3B8404FEA144901431FFA84FEB3FB74
:10225000F9F809FB18300B0C08FB0EFA43EA0043AF
:102260009A4540D9E31808F1FF3004D29A4502D9C3
:10227000A8F102002344A3EB0A0389B2B3FBF9F8E7
:1022800009FB183308FB0EFE41EA03418E452CD9A9
:10229000611808F1FF3304D28E4502D9A8F1020378
:1022A000214443EA0040A1EB0E01A0FB0298414506
:1022B000CE46434602D306D14D4504D20138B9EB90
:1022C000020E68EB0403002EA7D0B5EB0E0261EB03
:1022D000030101FA0CFC22FA07F3F9404CEA03036C
:1022E000C6E9003199E74046C5E74346D9E7000013
:1022F00070B584B0012848D10C4688F0B1FEC30BFC
:1023000043EA4143C90B264EA3FB062306FB0131DA
:10231000C0F30E00A0FB0605C30B43EA4543D218E9
:1023200041F1000123686068A3FB063506FB0055F8
:10233000A0681B1845EBE0759C1A65EB010516A318
:10234000D3E9002320462946FEF7B4FDCDE900017C
:1023500011A3D3E9002320462946FEF7ABFD0292E4
:102360004FF02003EFF3118583F31288BFF36F8FD3
:102370000C4C04AB13E90F0084E80F0085F31188BF
:10238000BFF36F8F002004B070BD69F03DF81623D5
:1023900003604FF0FF30F6E700CA9A3B00000000F0
:1023A00000CA9A3BB02D00202DE9F04F8DB0814638
:1023B00088461446D0F820110B6B43B10622183121
:1023C00004F1200052F09EFC002800F00A81D8F8A9
:1023D0006060D8F88050D4F8807002A9484679F03F
:1023E0006DFBE0B9DDF818A0BAF1000F04D1DDF8FB
:1023F00014B0BBF1000F14D0BAF1000F01D1DDF819
:1024000014A0079A5146029879F066FC834602466A
:102410004146484679F0CCFD0546564601E04FF06E
:10242000000B05F59C530833BB42C0F0DC80236DE4
:10243000B3F57A6F07DDD8F85030B3F57A6F21DB4A
:102440004FF0000A01E04FF0000A002E1DDB07F5F7
:102450009C530833AB42C0F0CA80BBF1190F00F3A4
:10246000C88016F1550F2FDB16F1500F52DB16F115
:102470004B0F52DB16F1460F52DB002E21DB4FF0E3
:10248000020B23E04FF0010ADFE7236E03EB4A0360
:10249000B342DCDA3846FEF755F8804689462846CE
:1024A000FEF750F84FF03332574BFEF7C5F80246AF
:1024B0000B4640464946FEF731FB0028C7D00020B6
:1024C00092E04FF0050B01E04FF0010B2846FEF7BC
:1024D00039F8804689463846FEF734F802460B46FE
:1024E000CDE900230022494BFEF7A6F802460B4631
:1024F00040464946FEF730FBA8B10BF10A0BBAF192
:10250000000F01D0ABF1020B236E9B1B5B4572DA0F
:10251000002069E04FF0020BD8E74FF0030BD5E73E
:102520004FF0040BD2E74FF03332374BDDE90001B7
:10253000FEF782F802460B4640464946FEF70CFB82
:1025400010B10BF1050BDAE72DA3D3E90023DDE988
:102550000001FEF771F802460B4640464946FEF779
:10256000FBFA10B10BF1020BC9E7BD4202D90BF126
:10257000010BC4E70022254B40464946FEF75CF8B4
:1025800002460B46DDE90001FEF7E6FA10B1ABF1B9
:102590000A0BB4E74FF033321B4B40464946FEF777
:1025A0004BF802460B46DDE90001FEF7D5FA10B103
:1025B000ABF1050BA3E712A3D3E90023404649463C
:1025C000FEF73AF802460B46DDE90001FEF7C4FAD1
:1025D00010B1ABF1020B92E7BD4290D20BF1FF3B81
:1025E0008DE7012000E001200DB0BDE8F08F002054
:1025F000FAE70020F8E70120F6E700BFAFF300801C
:102600009A9999999999F13F3333F33F0000F83F34
:10261000C1F30A5C02460B462DE9F041ACF2FF35EE
:102620000C460646132D34DC002D20DBDFF8D0806D
:102630000F4648FA05F801EA080C5CEA000C2DD0B8
:102640002DA3D3E90023FDF741FE00220023FEF76E
:1026500083FA40B1002C03DD4FF480132B411F445B
:1026600027EA0804002621463046BDE8F08122A36F
:10267000D3E90023FDF72AFE00220023FEF76CFABF
:102680000028F0D0002C33DB3443EBD000261D4C67
:10269000E9E7332D06DDB5F5806F26D010461946E3
:1026A000BDE8F081ACF2134C4FF0FF3727FA0CF77E
:1026B0003842F3D010A3D3E90023FDF707FE002230
:1026C0000023FEF749FA0028CDD0002C334609DD5F
:1026D000142D06D0C5F134050122AA4013449E42B0
:1026E00000D9013423EA0706BDE7FDF7EFFDD7E780
:1026F00000264FF00044B6E79C7500883CE4377E26
:10270000FFFF0F000000F03FC1F30A5C02460B46DA
:102710002DE9F041ACF2FF350C460646132D32DCB4
:10272000002D20DBDFF8E0800F4648FA05F801EACB
:10273000080C5CEA000C2BD031A3D3E90023FDF791
:10274000C5FD00220023FEF707FA40B1002C03DA92
:102750004FF480132B411F4427EA0804002621462A
:102760003046BDE8F08126A3D3E90023FDF7AEFD96
:1027700000220023FEF7F0F90028F0D0002C27DB20
:1027800000263446EBE7332D06DDB5F5806F1CD00F
:1027900010461946BDE8F081ACF2134C4FF0FF37FC
:1027A00027FA0CF70742F3D015A3D3E90023FDF76E
:1027B0008DFD00220023FEF7CFF90028CFD0002C9A
:1027C00033460CDB23EA0706C9E7FDF77FFDE1E7A7
:1027D00024F0004426430DD14FF00044BFE7142DF0
:1027E00006D0C5F134050122AA401344B342E9D210
:1027F0000134E7E70026054CB1E700BFAFF30080E6
:102800009C7500883CE4377EFFFF0F000000F0BF9E
:10281000F8B5C1F30A5604460D4617460B462EBBC3
:1028200021F00043034320D02D4B0022FDF704FF8D
:102830002C4B04460D469F4241DBC1F30A560B4622
:10284000363EBA1940F2FE718A4217DC002A30DCAB
:1028500012F1350F1EDB244E363220461E40234B2C
:1028600046EA02510022FDF7E7FEF8BD40F2FF7292
:102870009642E6D10246FDF729FDF8BD14A3D3E93F
:102880000023ED0F1A481C4665F3DF742146FDF75F
:10289000D3FEF8BD05F00044164844F0D27141F46F
:1028A000B7310DA3D3E9002341F01F01FDF7C4FEAA
:1028B000F8BD0D4E20461E4046EA0251F8BD06A363
:1028C000D3E90023FDF7B8FEF8BD00BFAFF30080E9
:1028D0009C7500883CE4377E59F3F8C21F6EA50151
:1028E00000005043B03CFFFFFFFF0F800000903C12
:1028F0009C75008859F3F8C22DE9F04F016C9BB02C
:1029000016461F46279D0490CDE9026749B1426CE7
:102910000123044693404A608B605AF05DFA00231D
:102920002364B7F10009C0F2B68000232B607E4B10
:1029300033EA090300F0BA800022DDE902341846C8
:1029400021460023CDE90801FEF7DEF8804668B194
:102950000123269A1360289B13B1744B289A1360A5
:10296000DFF8CC8140461BB0BDE8F08F18AB04986F
:10297000019319AB0093DDE908235AF033FE834637
:102980005FEA195540F0A980DDE91885454405F254
:102990003243202B40F34D82C3F1400309FA03F97F
:1029A00005F2124326FA03F349EA0300FDF7CAFDD4
:1029B000013D0123A1F1F871109300225D4BFDF759
:1029C00083FC53A3D3E90023FDF736FE52A3D3E9DA
:1029D0000023FDF77BFC06460F462846FDF7C2FDA7
:1029E0004FA3D3E90023FDF727FE02460B463046EE
:1029F0003946FDF76BFC06460F46FEF74DFC0022FC
:102A00008246002330463946FEF788F8002840F019
:102A10000382A8EB0508BAF1160F08F1FF330693FD
:102A200000F2A781444E06EBCA06DDE90801D6E9AB
:102A30000023FEF773F8002800F0848000230AF1D9
:102A4000FF3A0F9308F1FF33002BC0F29981002366
:102A50000A93BAF1000F7BDA0A9BCDF82CA0A3EB06
:102A60000A030A93CAF100034FF0000A0E93249B55
:102A7000092B77D8052B40F3E181043B00272493F1
:102A8000249B023B032B00F25986DFE813F0540429
:102A9000510447042C04012329F000492B60224BE8
:102AA000CDF80C9033EA09037FF446AFC9F313095C
:102AB00042F20F73269A59EA060913601DD0289B2B
:102AC000DFF87880002B3FF44DAF08F10303289A1C
:102AD000404613601BB0BDE8F08FDDE90812CDF869
:102AE0004080A5F2FF35C2F313030846DDF860808D
:102AF00043F07F5141F440115FE7289BDFF84080AD
:102B0000002B3FF42FAF08F10803E0E7AFF300809C
:102B100061436F63A787D23FB3C8608B288AC63FE3
:102B2000FB799F501344D33F0000F07FDD7F090005
:102B3000DC7F09000000F83FD0FE0800800C0B008D
:102B4000740C0B00B8F1000F40F3B1840F900A90A1
:102B5000069BCDF82CA05344069300230E93249B90
:102B6000092B87D900230127CDE924334FF0FF3308
:102B70000C970793049B00215964079B11930498B9
:102B80005AF004F90590002800F0E185079B0E2B10
:102B90008CBF002707F00107DDE904321A64002F1B
:102BA00000F01B810B9A002A40F34A81BC4E02F0D0
:102BB0000F03D4054FEA221806EBC303D3E90067DD
:102BC00040F17083B74B08F00F080325D3E90823C1
:102BD000DDE90801FDF75AFECDE91201B8F1000F59
:102BE00012D0DFF8C09218F0010F08D030463946F5
:102BF0000135D9E90023FDF71FFD06460F465FEAC0
:102C0000680809F10809EED132463B46DDE91201B8
:102C1000FDF73CFE804689460F9B43B10022A24B44
:102C200040464946FDF77AFF002840F04784284691
:102C3000FDF798FC42464B46FDF7FEFC9B4B0022FD
:102C4000FDF744FB079B0646A1F15077002B00F0EF
:102C5000AB80079B0B9C1293059B404612995D1C11
:102C6000CDE914678E4E06EBC10353E90212CDE99C
:102C700016124946FEF710FB00F13007FDF772FC13
:102C800002460B4640464946FFB2FDF71DFB89460A
:102C90000C998046DDE91623002900F00F81002001
:102CA0008349FDF7F3FDDDE91423FDF70DFB059ED8
:102CB00042464B46377006460F46FDF74DFF00284B
:102CC00040F02F850023CDF858A0CDF850B09A469B
:102CD000DDF848B012942BE00AF1010ADA4580F2DF
:102CE000BD84304639460022724BFDF7A5FC002218
:102CF000704B06460F4640464946FDF79DFC894607
:102D00008046FEF7C9FA0446FDF72CFC02460B4646
:102D1000303440464946FDF7D7FA32463B4605F87F
:102D2000014B80468946FDF7F9FE002840F09C845F
:102D300042464B4600205C49FDF7C6FA32463B4608
:102D4000FDF7ECFE0028C7D0DDF850B02F46129CEE
:102D5000059902E08F4200F05F843A4617F8013D82
:102D6000392BF7D00133DBB23B70DDF814800592CC
:102D70006BE101230F9308F1FF33002BBFF667AE21
:102D8000C8F101030A930023069362E62846FDF783
:102D9000E9FB42464B46FDF74FFC0022434BFDF753
:102DA00095FA0646A1F15077404649460022424B2B
:102DB000FDF78AFA32463B4680468946FDF7CCFE4F
:102DC000002840F0AD8340464946324607F10043B3
:102DD000FDF7A4FE002840F0D5810B9A199B0E2A1E
:102DE00002DC002B80F2AD810C9A002A00F0B58045
:102DF000249A012A40F38583079A0E9B551EAB4205
:102E0000C0F2C782002AA3EB050580F25B840A9B0F
:102E1000079AA3EB0208C9E25046FDF7A3FB32462E
:102E20003B46FDF771FE00287FF4F3AD0AF1FF3A4F
:102E3000EFE5C3F1200306FA03F0B7E501271FE62B
:102E400000F0A3820B9B164E5D4205F00F0306EBCC
:102E5000C303DDE90801D3E90023FDF7EDFB2E11E3
:102E6000CDE9120100F052840E4C00230225804669
:102E70008946F00709D5404649460135D4E9002383
:102E8000FDF7DAFB3B4680468946761004F10804DC
:102E9000EFD1002B7FF4C0AEDDE91289BCE600BFA4
:102EA000D0FE0800A8FE08000000F03F00001C4013
:102EB0000000E03F0000244000001440DDE9140160
:102EC000FDF7BAFB059B1F70129B012BCDE90C018E
:102ED00000F00984129F059BCDF840A01F440022FA
:102EE000AA4B40464946FDF7A7FB89468046FEF7B8
:102EF000D3F98246FDF736FB02460B460AF1300A4B
:102F000040464946FDF7E0F905F801ABAF4280467F
:102F10008946E4D1DDF840A000229D4BDDE90C019B
:102F2000FDF7D4F942464B46FDF7F8FD002840F086
:102F30007B8300209649DDE90C23FDF7C5F9424665
:102F40004B46FDF709FE002840F01982199B002B23
:102F500003DB0B9B0E2B40F3F58000230E9DDDF869
:102F600028801E460C93B8F1000F0DDD069900294C
:102F70000B4609DD41450A9AA8BF4346D21AA8EB81
:102F80000308CB1A0A9206930E9B53B10C9B13B104
:102F9000002D40F01E8259460E9A04985AF004F90A
:102FA0008346012104985AF01FF80746BAF1000F32
:102FB00040F06381249B012B40F37A810123069921
:102FC0000B4413F01F0308D0C3F12002042A00F3BE
:102FD000B5810AD0C3F13C0300E01C230A9A98444F
:102FE0001A440A92069A1A4406920A9B002B05DD9F
:102FF00059461A4604985AF031F98346069B002B2D
:1030000005DD39461A4604985AF028F90746249BEC
:10301000022B0F9BD4BF00250125002B40F0BE8062
:10302000079B002B24DC1DB3079B002B00F08F8136
:10303000259BDDF81480DC433946049859F0CCFE1A
:103040001EB13146049859F0C7FE5946049859F00C
:10305000C3FE00220599631C0A70269A1360289B00
:10306000002B3FF47FAC404619601BB0BDE8F08FE9
:103070000C9B002B00F0AF80B8F1000F00F3C08173
:10308000BAF1000F40F0D382B146059D079C6B1E3C
:103090001C44029B089403F00103049C0A933946E4
:1030A000584659F0DDF83146824658465AF04AF9FA
:1030B0004A463946804620465AF064F9C2680146BD
:1030C0000AF13003002A40F0A281CDE906035846F8
:1030D0005AF038F906990690204659F07DFE249B57
:1030E000069A52EA0301079B40F0C2810A9A002A1D
:1030F00000F0F282B8F1000FC0F2AD81089AA84644
:10310000AA4208F8013B00F0D282594600230A2265
:10311000204659F06BFE4E45834631464FF0000382
:103120004FF00A02204600F09D8159F05FFE4946AB
:10313000064600230A22204659F058FE454681469D
:10314000ADE7144E0B9B06EBC306D6E90034CDE980
:103150000234259B002B80F2E881079B002B00F3B3
:10316000E481079B73B900220B4BDDE90201FDF7F7
:1031700063FA02460B46DDE90801FDF7D9FC002899
:1031800000F0CE8100273E4652E700BF00002440F9
:103190000000E03FD0FE08000000144039465846C9
:1031A0005AF0D0F80028BFF63BAF0B9B59460A22D5
:1031B0000498013B0B93002359F018FE0C9B8346A7
:1031C000002B40F09282119B002B119B079302DC95
:1031D000002D7FF429AFDDF814800125079CDDF870
:1031E000109007E0594600230A22484659F0FEFD98
:1031F000013583463946584659F032F8A54200F168
:10320000300308F8013BEDDB079A0025002ACCBF0C
:1032100090464FF00108059A9044594601220498BF
:1032200002935AF01BF8394683465AF08BF800286F
:1032300040F3E481059A02E0904500F0D48118F84B
:10324000013CC24608F1FF38392BF5D001330B9C05
:1032500088F800303946049859F0BEFD002E00F081
:10326000C8812DB1B54203D02946049859F0B4FD68
:10327000DDF81480CDF814A0E3E601465246049828
:1032800059F092FF249B0746012B40F395804FF0A5
:10329000000A3B6907EB8303186959F051FEC0F13E
:1032A00020038CE6DDE908340225CDE9123495E4EB
:1032B000029B002B7FF482AEDDE90212C2F31303FE
:1032C000002B7FF47BAEAD4B134033B10A9B01332F
:1032D0000A93069B013306930123BAF1000F40F0D5
:1032E000F9819A466AE601230C93259B0B9A1344B5
:1032F00011930133012B1D460793B8BF0125172DEC
:1033000040F31382012204235B001146013203F1D2
:103310001400A842F8D9049B596430E401230C93AB
:10332000259B002B40F3BE801D4611930793E6E7D3
:1033300000230C93D9E700230C93F1E7C3F11C039E
:103340000A9A19441A4498440A9206914DE639465D
:103350000522049859F04AFD07465846394659F067
:10336000F1FF00287FF764AEDDF81480059B0B9C0D
:10337000013301340593312388F800305CE63A4686
:1033800017F8013D302BFAD0EFE40225DDE908897A
:1033900042E40E9B0E95EB1A00259A44DDE90632B5
:1033A000134406930A9B984613440A9301210498F8
:1033B00059F01AFE0646D6E5029B002B7FF467AF54
:1033C000DDE90201C1F313030A46002B3FF47BAF92
:1033D0005DE7049C31462A46204659F0E5FE064644
:1033E0005A462046314659F02DFE5946834620461E
:1033F00059F0F2FC0E9B5B1B0E933FF4D2ADCAE575
:1034000031464246049859F029FF064638E60498AA
:10341000069359F0E1FCB8F1000F069B08DB029A15
:10342000249902F0010248EA010852EA08022ED16A
:10343000594601220498029359F010FF39468346F9
:1034400059F080FF0028029B40F36581392B00F082
:1034500031810AF13103AA460B9C35464E460AF8E3
:10346000013BF7E659F0C2FC45460646814616E6A2
:10347000B8F1000FC0F25E81249948EA01080A9968
:1034800051EA080800F05681002A7FF737AE392B41
:1034900000F01081AA46013335460B9C4E460AF8CF
:1034A000013BD7E6012325930793FFF763BBC8F1E0
:1034B000010306900F900A93FFF74ABB079B002B6E
:1034C0003FF464AC119B002B7FF787AC0B9A40460E
:1034D00049461293541E2A4B0022FDF7ADF8804650
:1034E0008946681CFDF73EF842464B46FDF7A4F8B6
:1034F0000022244BFCF7EAFE0646A1F15077FFF7C5
:10350000ABBB109A002A00F08B8003F23343069A7B
:103510000E9D1A4406920A9A90461A440A9245E76A
:103520000027DDF814803E4620E7DDE90889DDE963
:10353000022340464946FDF7A9F9059FFDF7ACFE79
:103540000546FDF70FF8DDE90223FDF775F80B4698
:10355000024649464046FCF7B7FE05F1300307F83E
:10356000013B079B012B00F08980CDF818B00126A4
:10357000DDF81C90DDE902AB22E000BF0000F07F27
:103580000000244000001C4052465B46204629466D
:10359000FDF77CF90136FDF77FFE8046FCF7E2FF80
:1035A00052465B46FDF748F80B4602462946204640
:1035B000FCF78AFE08F13003B14507F8013B5AD009
:1035C0000022704BFDF738F80022002304460D4618
:1035D000FDF79AFA0028D7D0DDF818B0DDF814808E
:1035E0000B9C059731E50B9C3123059A0134137030
:1035F00030E6DDF81480CDF814A026E503D1029B57
:10360000DB073FF517AE18F8013CC24608F1FF385A
:10361000302BF8D00B9C1DE601343123FFF7A4BBFF
:10362000189BC3F1360372E70599FFF796BB7168E3
:10363000049859F0ABFB0546002800F08F803369F1
:1036400006F10C010C3002339A00FDF7BBFC294651
:103650000122049859F002FE814616E5DDF858A0D3
:10366000DDF850B0FFF7B9BBDDF81480DDF850B0DD
:10367000129C0595E9E4DDF818B0454602460B4674
:10368000FCF724FE80468946DDE90223FDF764FA53
:1036900048B940464946DDE90223FDF735FA0028DE
:1036A0009CD0E9079AD50B9C0599FFF756BB354688
:1036B0004E46B2E5A84639233546059A4E4608F8E7
:1036C000013BBCE5069B134406930A9B98461344B2
:1036D0000A936BE69A46DCE5392BEBD0B8F1000F84
:1036E0003FF7B7AEB7E62F4616E4314600230A226D
:1036F000049859F07BFB119B0646002B119B079306
:103700003FF7BAAC002D7FF48FACB5E4DDE9128948
:103710000225FFF781BA7FF49EAEDA077FF59BAEF4
:1037200094E6DDF8148005958FE40021049B59642C
:10373000FFF725BA002A3FF77BAE8CE6049B0025F5
:10374000184629465D6459F021FB059068B90E4B77
:1037500000224FF4D5710D4850F06CFE02460A4B22
:1037600040F2EA21094850F065FEDDE90432259572
:103770001A644FF0FF33012211930C920793FFF765
:103780002CBB00BF00002440840C0B00980C0B00E5
:103790002DE9F04F1C46794B9FB00E46002583461D
:1037A000186807921A95089052F0CEFA0021024646
:1037B00033460020CDE904019846199313F801AB74
:1037C000BAF12D0F5ED801A151F82AF0633900003B
:1037D00085380000853800008538000085380000F5
:1037E00085380000853800008538000085380000E5
:1037F000B9370000B9370000B9370000B937000009
:10380000B937000085380000853800008538000091
:1038100085380000853800008538000085380000B4
:1038200085380000853800008538000085380000A4
:103830008538000085380000853800008538000094
:10384000853800008538000085380000B937000051
:103850008538000085380000853800008538000074
:103860008538000085380000853800008538000064
:103870008538000085380000373F0000853800009B
:10388000513F000000230993BAF1300F00F0688225
:1038900000230A93AAF13003092B00F25684002773
:1038A00040463D463C460130082C07EB870104F1B9
:1038B000010405EB850C199090F800A0CCBF03EB38
:1038C000410703EB4C05AAF13003092BEBD908990A
:1038D000089252F067FA089A8146002850D1199B45
:1038E00001460894981819909B5CA3F13002092AAC
:1038F00000F2F082013192461998002A40F0F884D3
:10390000431C19934378F0E74FF0010EB31C199351
:10391000B378A3F1300CBCF1090F00F2F582199ACB
:10392000302B0B9240F02B83013219921378302BFD
:10393000FAD0A3F131000B92082840F21E83002236
:103940000C9254BB0A9A0A4340F09882BAF1000FD5
:1039500007D1692B00F0398340F318826E2B00F0F9
:103960001B82079B4FF000084FF0000903B11E6057
:10397000404649461FB0BDE8F08F00BF380F0B002E
:103980002AF02002002153460894452A89468A4697
:1039900000F0AD820C91002CD4D0089A2846A246A3
:1039A0001346002A08BF23460893FCF7CBFD0B46BD
:1039B0000246102CCDE904230C9BA8BF4FF0100A3F
:1039C000092CA3EB09030B9317DD544B03EBCA033C
:1039D00053E91223FCF730FE024638460F461646DE
:1039E000FCF7B0FD02460B4630463946FCF76EFC4C
:1039F0000F2CCDE9040100F3E1810B9B002B00F0BB
:103A000097820B9B40F3A782162B40F39A84C4F154
:103A100025030B9A934280F2DA84A4EB0A0616443B
:103A200016F00F000AD03D4901EBC001DDE9042387
:103A3000D1E90001FCF700FECDE9040136F00F03E7
:103A40004ED0B3F59A7F00F34684102B4FEA23162D
:103A500040F3B285DFF8C8E04FF0000CCDF82890B5
:103A60007746E246F146DDE9042316F0010F1046E1
:103A700019464FEA66060AF1010A07D0D7E9002382
:103A8000FCF7DAFD4FF0010C02460B46012E07F160
:103A90000807EAD1CE46DDF82890BCF1000F01D02E
:103AA000CDE90423059B0EEBCA0E1E4EA3F1547301
:103AB0000593DDE90423DEE90001FCF7BDFD1A4BA7
:103AC0000A460B40B342CDE9040100F204841749D1
:103AD0008B4240F2FE844FF0FF33154ACDE90432A9
:103AE00000230A932346089A41465846009559F008
:103AF000CFF91590002800F0EE830B9A4FF0000AE2
:103B00000C9B002ACDF820A0A9EB0303A8BF00233B
:103B10000C9322EAE2731493E2E000BFD0FE0800A7
:103B2000A8FE08000000A07C0000F07F0000907C50
:103B3000FFFFEF7FD21A1F2AA4EB020400F3C68214
:103B4000012300259340984626443C440A9BA74203
:103B50001E443B46A8BF2346B342A8BF3346002BB2
:103B600002DDE41AF61AFF1A0C9B002B00F35482B4
:103B7000002C00F36A820B9B002B00F39D82002E29
:103B800000F38E82002F08DD51463A46584659F020
:103B900065FB8246002800F08C824A461A995846F6
:103BA00059F0F0FB0890002800F08382089A002367
:103BB000D168D3600D91514659F0C4FB0028C0F282
:103BC000C584059F00F022845146089859F06AFD8B
:103BD00000224FF0804304460D46FCF7A9FF002861
:103BE00000F00A820D9B002B40F07C82049B002B8E
:103BF00040F06183C7F31303002B40F0E6820022FC
:103C0000AB4B20462946FCF789FF002840F0F5839E
:103C10002046A84B29460022FCF70EFD03460C4621
:103C20000E90CDE9123401F100430F93A24EA34B45
:103C30003E409E42DDE90E4500F05B820A9B23B3C5
:103C4000B6F1D46F21D8DDE9127897A3D3E9002328
:103C500038464146FCF76CFFA0B141463846FCF7B8
:103C600085FF012838BF0120FCF76CFC0D9BCDE9D6
:103C70001201002B40F0378301F100431690179397
:103C8000DDE9164505F1D6639D1BDDE91078384660
:103C9000414659F027FC02460B4620462946FCF7D0
:103CA000CBFC3A464346FCF711FB0C46CDE9040138
:103CB000814B2340B34203D10A9B002B00F08E823C
:103CC0001A99584659F088F84946584659F084F8E8
:103CD0005146584659F080F80899584659F07CF8F2
:103CE000159C5846616859F051F88146002800F04B
:103CF000E081226904F10C010C3002329200FDF7E0
:103D000061F91CAB584601931BAB0093DDE9043409
:103D10001A46CDE91034234659F064FC1A90002865
:103D200000F09C810121584659F05EF98246002836
:103D300000F0BF811B9B002BC0F2AE810C9A149E39
:103D40009F180A9A1C9C9B1A5D4A2344C4F13604AE
:103D5000013B9342FFF6EEAE012300259846F3E6C1
:103D600098F8013003F0DF03582B00F075824346CA
:103D70000133199393F800A0BAF1300FF8D09846A8
:103D8000BAF1000F7AD001230A9383E5492B00F0A2
:103D90001C814E2B7FF4E5AD4A4919A85AF038FB37
:103DA00000283FF4DEAD199B1B78282B00F07E83A2
:103DB00045485AF039FC8046894663E0A4EB0A0680
:103DC0000B9B1E44002E3FF72BAE3FF489AE76428C
:103DD00016F00F020AD03D4B03EBC203DDE90401EC
:103DE000D3E90023FCF752FDCDE9040136113FF47D
:103DF00077AE1F2E3FDC16F01003354F4FF0000C4E
:103E000018BF6A230A93DDE9042316F0010F104658
:103E1000194607D0D7E90023FCF70EFC4FF0010C40
:103E200002460B46761007F10807EED1BCF1000FF1
:103E300001D0CDE904230A9BA3B1DDE90401C1F35C
:103E40000A52C2F16B03002B0ADD1F2B40F3FA83E9
:103E50000020342B049040F321844FF05C730593D1
:103E60006A230A9300220023DDE90401FCF74CFEDB
:103E700000283FF437AE2223CBF800304FF0000883
:103E80004FF00009079A0AB1199B1360099B002B98
:103E90003FF46EAD09F100434046994649461FB0D4
:103EA000BDE8F08FAFF300800000C0FFFFFFDF41EF
:103EB0000000F03F0000E03F0000F07F0000E07FE6
:103EC00002FCFFFFBC84090018AA0900D0FE08000C
:103ED00098FF08004FF0010A23F02002452A7FF4E2
:103EE0002EAD44EA01030A9A13433FF43AAD199EFA
:103EF000731C199373782B2B00F023812D2B3FF427
:103F000003AD4FF0000E04E5002219960C9218E55F
:103F10001C9A03F2334304921D9A22F4801242EA5F
:103F200003530593210703D5059B43F000430593F5
:103F3000DDE90489A6E70023099308F10103199339
:103F400098F801A0BAF1000F3FF40BAD98469BE43E
:103F500001230993F1E71633FFF630AF0C9BA9EB71
:103F60000309B34B03EBC903DDE90401D3E90023E3
:103F7000FCF78CFC8046894684E7A3F1300C0B9B50
:103F8000581C19905B78A3F13002092A00F2D18104
:103F900001300CEB8C0C199003EB4C0C0378ACF15A
:103FA000300CA3F13002092AF2D90B9A801A0828A2
:103FB00040F3BF8144F61F620C92BEF1000F3FF444
:103FC000C0AC0C9A52420C92BBE49A4919A85AF020
:103FD0001FFA00283FF4C5AC199B19A89649013B6C
:103FE00019935AF015FA10B9199B013319934FF030
:103FF0000008DFF8489245E7914B20462946002209
:10400000FCF71AFB0D9BCDE91201002B65D101F1E4
:1040100000430E900F9309E651461A46584659F050
:10402000C3F88246002844D001461A9A584659F0EF
:1040300009F800283DD00D9058461A9958F0CCFE4A
:104040000D9B002C1A937FF796AD22461A9958467D
:1040500059F004F91A9000287FF48DAD4F460546BB
:1040600022234FF00008DFF8D491CBF80030294626
:10407000584658F0B1FE3946584658F0ADFE514604
:10408000584658F0A9FE1599584658F0A5FE0899CB
:10409000584658F0A1FEF5E6149A0C9FD61A50E641
:1040A00049463246584659F0D9F8814600287FF4EF
:1040B00069AD4F461A9DD3E74946149A584659F0C0
:1040C00073F8814600287FF45AADF2E75D4AD31AAF
:1040D000012202FA03F5904636E5DDE91234CDE916
:1040E0000E34A3E50023584CCDE90E34CDE912344B
:1040F0009CE5A7F15473514F0593DDE90445204633
:10410000294659F0EFF9DDE90E23FCF795FA2B4625
:104110002246FCF7DBF84D4B0F409F42CDE90401EE
:1041200040F2DD8003F15473DDE91001994202D1C0
:10413000B0F1FF3FBDD04FF0FF33454ACDE9043227
:10414000BEE54FF0000EFFF7E1BB089940460B9229
:1041500051F028FE0B9A089048B1002253461746AA
:10416000924615461146914614460892B4E6199BAC
:10417000981819909B5C302B40F02781024611461D
:10418000013219921378302BF9D0C0F101000144AB
:10419000A3F13102082A10D8DDF864800025A3F1CC
:1041A000300A01F10109012440462F4605EB85053F
:1041B00000210AEB4505FFF7A3BB4FF000094FF0C4
:1041C000010A4C464F464D4686E60023214CCDE978
:1041D0000E3400231C4CCDE9123427E5DDE91256DC
:1041E000C4F3130728463146FDF71CFFFCF7F6F928
:1041F00002460B4628463146FCF766F8049D0D9EA4
:1042000004462E430D46374343D107A3D3E9002389
:10421000FCF784FC00283FF453AD4F461A9DDDE9BE
:10422000048924E7AFF300809535A094FFFFCF3FCA
:10423000D0FE08008C0D0B00900D0B000000F07FED
:104240000000E03FE2FBFFFF0000F03FFFFF9F7C2C
:10425000FFFFEF7F0000F0BF099B19A902945846A9
:1042600001931AABB04A00931BAB59F0D5FD10F087
:10427000070504463FF402AE062D7BD1079A12B122
:1042800008F1010313604FF000084FF00009FFF739
:104290006FBBA1A3D3E90023FCF740FC0028BCD1ED
:1042A000204629469EA3D3E90023FCF755FC0028AD
:1042B0003FF406ADB1E7049B012B86D1002F84D1DA
:1042C0004F461A9C222325464FF000084FF0000964
:1042D000CBF80030CBE62223CBF8003087E601F1A3
:1042E00054740594E4E4DDE91234CDE91634C7E4EE
:1042F000012900F0138204EB010E0EF1FF3CCDF812
:104300002CE003E04FEA4E05A4450BD0082C05EB4A
:10431000850E04F10104F5D907EB8703102CD8BFF3
:104320005F00F1E7DDF82CE0082C894416DC7446C8
:104330003CE744F61F629445A8BF9446CDF830C0D0
:104340003BE60B98794901EBC001DDE90423D1E993
:104350000001FCF771F98046894693E5BEF1100F24
:1043600074464FF00001DCBF07EB870702EB4707FD
:10437000FFF7C6BA1A9A3AB135211CA859F0BCF910
:1043800058461A9958F028FD013D1B9B042D3FF615
:10439000C9AD01A252F825F0113F0000C143000051
:1043A000BB430000AD430000113F00004FF0FF335E
:1043B0006FF00040CDE90430B4E55D4B0593B1E505
:1043C0001C9B04931D9B0593ACE50899E0E6C4F1A2
:1043D0000F04564D05EBC401DDE90423D1E90001CA
:1043E000FCF72AF90B9B1C1B05EBC405D5E9002340
:1043F000FCF722F98046894644E500234D4CCDE97F
:104400000E3400234C4CCDE912340FE43B460D989A
:10441000C4464F46AE464949C3F31302DDE910894D
:1044200000285BD08A4200F0FB80B5BB049A1CEAEE
:10443000020F35D040464946049359F053F80A9B81
:1044400004460D46002B00F01F81049BC3F30A5362
:10445000C3F16B06002E40F36481394C002204EB5B
:104460000653FCF7E9F802460B4640464946FBF77F
:104470002DFF1A9C8046894640464946314B002212
:10448000FCF7DAF80B4625468046034389467FF45D
:10449000EEAD2223CBF80030E9E51EEA030FC9D1C7
:1044A0001A9C0A9B2546002BE6D1E0E519A81CAA18
:1044B000254959F0C7FF05287FF47AAC1D9B43F0CE
:1044C000FF4343F4E00305931C9B0493DDE9048957
:1044D000D8E402F154730593FFF702BB002A71D1AF
:1044E000DDE904452246002C40F0B4800A9A002AF7
:1044F00040F0F08025F00044240D2405A4F580143C
:104500001A9D6FEA14536FEA035305934FF0FF337C
:104510000493DDE90489AAE59535A094FFFFDF3F08
:1045200035E5AF350000E03FAC0D0B00D0FE0800D4
:104530000000F07F0000E0BF0000E03FFFFF0F0041
:104540000000F03F00005039980D0B000D9B4F46C6
:10455000DDE90401DDE910890343A1D1C1F31303AF
:10456000002B9DD121F00044240D2405B4F1D66F19
:10457000264695D9089A536913B91369012B8FDD23
:1045800008990122584658F069FE5146089058F0A3
:10459000D9FE002884DD0A9B002BAFD0A6F580133E
:1045A0001A9C6FEA13536FEA035305934FF0FF33DE
:1045B0000493DDE904895FE74FF0000ADFF87CE14E
:1045C000FFF770BA002D48D1049A1CEA020F3FF49D
:1045D00067AF40464946049358F084FF0A9B002B7E
:1045E00040D0049BC3F30A53C3F16B06002E40F383
:1045F000A280534C002204EB0653FCF71DF8024640
:104600000B4640464946FBF75FFE002200238046EA
:104610008946FCF779FA00287FF453AE1A9C2BE701
:10462000DDE904010A9A0446002A40D1024601321B
:104630006DD0BEF1000F7FF430AF14EA0C0F3FF4E1
:104640002FAFF7E64FF0FF3202FA03F3049A1A4055
:10465000049205E4BEF1000FB7D01EEA030F3FF449
:104660001FAFB6E702460B4640464946FBF72CFE15
:104670001A9C00220023804689462546FCF744FA0E
:1046800000283FF4F4AC1DE6404649462B4622463E
:10469000FBF71CFE1A9D80468946E8E4C2F14B02F6
:1046A0004FF0FF3393400B400593FFF7D9BB254AEA
:1046B0001A40B2F1D46F21D9611CBAD122498B4280
:1046C0003FF4F8AC02F58013059300230493DDE971
:1046D0000489E5E61B4E1E40B6F1D66F3FF65EAF8D
:1046E0001A9DB6F15C7F2C463FF6C6AE22234FF0F2
:1046F00000084FF00009CBF80030B8E4100D4FF07F
:10470000FF31C0F16B0081408C4292D1DAE70E4A52
:1047100093423FF4CFAC01321A40D3E704F1010ECB
:1047200002E64046494622462B46FBF7CFFD1A9C3F
:1047300080468946A0E602460B4662E7A8FE0800CE
:104740000000F03F0000F07FFFFFEF7F000000005F
:1047500001295CD800220023C0E90023C0E902231C
:1047600000292BD12CA3D3E90023C0E904232CA3D7
:10477000D3E90023C0E906232BA3D3E90023C0E932
:1047800008232BA3D3E90023C0E90A232AA3D3E9F2
:104790000023C0E90C232AA3D3E90023C0E90E2398
:1047A00029A3D3E90023C0E9102329A3D3E90023D7
:1047B000C0E91223C0F8D0100020704726A3D3E927
:1047C0000023C0E9042326A3D3E90023C0E906237C
:1047D00025A3D3E90023C0E9082325A3D3E90023B7
:1047E000C0E90A2324A3D3E90023C0E90C2324A3AE
:1047F000D3E90023C0E90E2323A3D3E90023C0E9B2
:10480000102323A3D3E90023C0E91223D2E76FF0DA
:1048100074007047AFF3008008C9BCF367E6096A0B
:104820003BA7CA8485AE67BB2BF894FE72F36E3C3F
:10483000F1361D5F3AF54FA5D182E6AD7F520E519C
:104840001F6C3E2B8C68059B6BBD41FBABD9831F56
:1048500079217E1319CDE05BD89E05C15D9DBBCB50
:1048600007D57C362A299A6217DD70305A01599192
:1048700039590EF7D8EC2F15310BC0FF6726336777
:1048800011155868874AB48EA78FF9640D2E0CDB7A
:10489000A44FFABE1D48B547254B1B6803F007031C
:1048A000022B44D9F0B583B000AF6D4688B06B469B
:1048B00013F1100435D0102064B18446042801DDC2
:1048C0001C4E5E61BCF1080F00DD9961BCF10C0F5C
:1048D00000DDDA610F2827DD10223CB10421397197
:1048E00000217971B971F9717868186100216FF34D
:1048F00000016FF341016FF382016FF3C5010323E0
:1049000063F38811C2F30A0262F353216FF31F515C
:1049100000232246064806F047FFAD460C37BD4649
:10492000F0BD6FF00040C7E76FF01B02D5E770479E
:10493000CC140020C0020900F0B58BB004460D462F
:1049400016460378032B38D8DFE803F002212B3119
:104950001D4B93E803000790ADF82010090C8DF86B
:10496000221063792279E178A07867780DF11C0C28
:10497000CDF814C004970390029101920093A3799B
:10498000124A3146284660F06EF80BB0F0BD104B6D
:1049900093E803000790ADF82010090C8DF8221061
:1049A000DFE70C4A07AB07CA03C31A80D9E70A4AF4
:1049B00007AB07CA03C31A80D3E7084A0A2107A82E
:1049C00060F051F8CDE700BFDC020900EC020900FD
:1049D000E4020900100309001C03090088490900CA
:1049E00000B589B01B490870002200231A484DF019
:1049F0009FFF10B909B05DF804FB184B1B6813F05A
:104A0000070F02D16FF00B00F4E7154B0793022359
:104A10008DF8043000238DF805308DF806308DF8C0
:104A20000730019A0692194663F3000163F34101CE
:104A300063F3820163F3C501012262F38811082246
:104A400062F3532163F31F5106AA044806F0ACFE3B
:104A5000D8E700BF0C42002094180020CC1400209E
:104A600028030900B0B58AB000AF0C4667F06BFBB5
:104A70001E2207F10801FFF75FFF374B1B6803F0A9
:104A80000703022B56D96D4600233B7102237B712D
:104A90008AB0EC461CF110021AD0122022B1042870
:104AA00002DD2E4BCCF8143000233B7002237B70C8
:104AB000DAB10346082803DD07F10801CCF8181025
:104AC0000C2B01DDCCF81C400CF1200300210AE086
:104AD0006FF00040E2E701F128043C4414F8284C50
:104AE00003F8014B01310129F5D9112830DD1223DA
:104AF0004AB10421397100217971B9710121F9712B
:104B00007868CCF8100000216FF300016FF34101C9
:104B10006FF382016FF3C501032060F38811C3F3C3
:104B20000A0363F353216FF31F5100230A4806F071
:104B30003BFEAD460A4B186820B167F07DFA084B82
:104B400000221A600320FFF74BFF2837BD46B0BD97
:104B50006FF01B03CCE700BFCC1400204403090016
:104B60003042002000B589B00022002318491948BE
:104B70004DF0DEFE20B1184B1B6813F0070F02D179
:104B800009B05DF804FB154B079302238DF8043040
:104B900000238DF805308DF806308DF80730019A26
:104BA0000692194663F3000163F3410163F3820146
:104BB00063F3C501012262F38811082262F35321D5
:104BC00063F31F5106AA044806F0EEFDD8E700BFC4
:104BD0005808002094180020CC1400206403090019
:104BE00010B588B01B4C231D07C883E807000022BE
:104BF0000023214618484DF09BFE20B1174B1B683F
:104C000013F0070F01D108B010BD154B0793022315
:104C10008DF8043000238DF805308DF806308DF8BE
:104C20000730019A0692194663F3000163F34101CC
:104C300063F3820163F3C501012262F38811082244
:104C400062F3532163F31F5106AA044806F0ACFD3A
:104C5000D9E700BFF841002094180020CC140020B0
:104C600064030900F0B58DB000AF002940D00846BC
:104C7000A94B1B6813F0070F00F038816D4688B010
:104C80006B4613F110022DD00C213AB10C460429C9
:104C900001DDA24E5E61082C00DD98610B2924DD48
:104CA0000C243AB10321397200217972B972F97278
:104CB000B868186100216FF300016FF341016FF3D1
:104CC00082016FF3C501012363F38811C4F30A0362
:104CD00063F353216FF31F5100238F4806F064FDE7
:104CE000AD4603E16FF00041CFE76FF01B04D8E75A
:104CF000044667F028FA1E2207F10C01FFF71CFE9C
:104D0000854B1B6803F00703022B53D96D46002324
:104D10003B7202237B7288B0EC461CF1100215D066
:104D20000E2022B1042802DD7D4BCCF81430002384
:104D30003B7102237B71BAB1082803DD07F10C0334
:104D4000CCF818300CF11C0300210BE06FF0004090
:104D5000E7E701F1300606EB070E1EF82CEC03F82E
:104D600001EB01310129F4D90D2840F3C2800E2353
:104D70004AB10321397200217972B9720121F972A5
:104D8000B868CCF8100000216FF300016FF3410107
:104D90006FF382016FF3C501032060F38811C3F341
:104DA0000A0363F353216FF31F5100235A4806F09F
:104DB000FBFCAD46204667F022F95A4B18605A4971
:104DC0005A4B0B60204616F07BFC10F0FF0F00F0F2
:104DD0009380C1B256485FF038FE564B1B68FB62A9
:104DE00007F12C01204667F0B0F910F0FF0F3AD020
:104DF000494B1B6813F0070F35D0C0B26E4688B020
:104E00006B4613F110027BD00C214AB10D460429E8
:104E100003DDDFF824C1C3F814C0082D00DD98615C
:104E20000B2970DD0C253AB103213972002179720A
:104E3000B972F972B868186100216FF300016FF35D
:104E400041016FF382016FF3C501012363F3881100
:104E5000C5F30A0565F353216FF31F5100232E4854
:104E600006F0A2FCB5463549204667F0CAF910F0B5
:104E7000FF0F38D0284B1B6813F0070F33D0C0B298
:104E80006D4688B06B4613F110023FD00C213AB149
:104E90000C46042901DD2A4E5E61082C00DD986174
:104EA0000B2936DD0C243AB10321397200217972C5
:104EB000B972F972B868186100216FF300016FF3DD
:104EC00041016FF382016FF3C501012363F3881180
:104ED000C4F30A0464F353216FF31F5100230E48F7
:104EE00006F062FCAD460120FFF77AFD3437BD467F
:104EF000F0BD6FF01B033BE712485FF0A6FD6CE7C7
:104F00006FF0004181E76FF01B058CE76FF0004107
:104F1000BDE76FF01B04C6E7CC1400208003090036
:104F20009C0309003042002008420020494F000045
:104F3000AC03090060FB0800E403090098080020A6
:104F400010040900CC030900F0B583B000AF0029BC
:104F50003CD00D46424B1B6813F0060F33D06C4615
:104F600088B06B4613F1100273D00C213AB1084699
:104F7000042901DD3B4E5E61082800DD9D610B299F
:104F80006ADD4FF00C0C3AB10321397100217971BF
:104F9000B971F9717868186100216FF300016FF33E
:104FA00041016FF382016FF3C501022363F388119E
:104FB000CCF30A0363F353216FF31F5100232848F6
:104FC00006F0F2FBA5460C37BD46F0BD68F02CFE9E
:104FD000234B1B6803F00703022BF4D903386D46FB
:104FE00088B06B4613F110022DD00C213AB10C465B
:104FF000042901DD1C4E5E61082C00DD98610B293F
:1050000024DD0C243AB10321397100217971B97181
:10501000F9717868186100216FF300016FF34101A5
:105020006FF382016FF3C501032363F38811C4F3A7
:105030000A0363F353216FF31F510023084806F05E
:10504000B3FBAD46BFE76FF00041CFE76FF01B0445
:10505000D8E76FF0004189E76FF01B0C93E700BFC2
:10506000CC14002064040900400409002DE9F0413B
:1050700094B000AFABE0814B1B68002B00F0A78021
:105080009847A4E07E4B1B68002B00F0A080012015
:1050900098479CE07A4B1B68002B00F0988000201A
:1050A000984794E0774B1B68002B00F090803A699A
:1050B000107898478BE0744B18683B691B78012B7C
:1050C00025D0724B9B68FB6107F11C0167F050F81B
:1050D000034600287BD06E4A126812F0070F76D084
:1050E000E84688B0694611F1100216D00C2052B182
:1050F0008446042803DDDFF89CE1C1F814E0BCF12C
:10510000080F0DDD8B610B282DDD0C230AE05F4BB2
:105110005B68BB6107F11801D8E76FF00040E6E774
:105120006FF01B033AB10320387100207871B87119
:10513000F871786808616FF300046FF341046FF34E
:1051400082046FF3C504012161F38814C3F30A03D9
:1051500063F353246FF31F54002321464C4806F099
:1051600023FBC54633E06FF01B03DBE7484B1B68AE
:1051700013F0070F2BD0484BFB6402233B71002335
:105180007B71BB71FB717A68BA6463F3000663F3E9
:10519000410663F3820663F3C506012262F38816B3
:1051A000082262F3532663F31F5607F14802314683
:1051B000374806F0F9FA0AE0013B032B07D8DFE88D
:1051C00003F002252B31354B1B6803B198474FF094
:1051D000FF324FF0FF3307F1080131484DF004FC76
:1051E0003B7A002BE8D13B7B013B052BBED801A2CB
:1051F00052F823F0775000008550000095500000D1
:10520000A5500000B7500000CF510000254B1B688F
:10521000002BDCD09847DAE7234B1B68002BD6D055
:105220009847D4E7214800F0F5FB0028CFD0184B71
:105230001B6813F0070FCAD01D4B7B6302233B7121
:1052400000237B71BB71FB717A683A6363F30005DD
:1052500063F3410563F3820563F3C505012262F33D
:105260008815082262F3532563F31F5507F13002B6
:105270002946074806F098FAA9E700BF2042002017
:105280001C420020184200203042002060FB080031
:10529000CC14002084040900A40409002C4200203E
:1052A000941800202842002024420020900800206A
:1052B000BC04090000B589B01A4904230B70002210
:1052C000002319484DF034FB20B1184B1B6813F034
:1052D000070F02D109B05DF804FB154B07930223B9
:1052E0008DF8043000238DF805308DF806308DF8E8
:1052F0000730019A0692194663F3000163F34101F6
:1053000063F3820163F3C501012262F3881108226D
:1053100062F3532163F31F5106AA044806F044FACE
:10532000D8E700BF0C42002094180020CC140020C5
:10533000280309002DE9F04383B000AF0C46514B20
:105340001B6803F00703022B49D9B1F80080B1F8BC
:1053500002E0B1F804C0CE886D468AB06B4613F106
:10536000100200F082801820AAB10146042803DD53
:10537000DFF81491C3F81490082901DDC3F81880F0
:105380000C2901DDC3F81CE0102901DDC3F820C0A1
:10539000142900DD5E6217286ADD4FF0180C3AB15F
:1053A0000621397100217971B971F9717868186134
:1053B00000216FF300016FF341016FF382016FF37E
:1053C000C501032363F38811CCF30A0C6CF353215A
:1053D0006FF31F5100232B4806F0E6F9AD462288F3
:1053E0002A4B1A80FFF766FF2388073B284A136081
:1053F000244A126802F00702022A32D96C4688B0A9
:10540000694611F1100236D00C203AB10546042845
:1054100001DD204E4E61082D00DD8B610B282DDD56
:105420000C233AB10320387100207871B871F871FB
:105430007868086100216FF300016FF341016FF399
:1054400082016FF3C501032060F38811C3F30A03DF
:1054500063F353216FF31F5100230A4806F0A4F9A8
:10546000A5460C37BD46BDE8F0836FF000407BE7F2
:105470006FF01B0C93E76FF00040C6E76FF01B0363
:10548000CFE700BFCC140020D8040900900800200A
:105490008C0800201C050900F0B583B000AF0C4655
:1054A000294B1B6803F00703022B3CD991F800C07D
:1054B0004E786D4688B06B4613F110023DD0102136
:1054C0006AB10846042903DDDFF880E0C3F814E080
:1054D000082801DDC3F818C00C2800DDDE610F29A3
:1054E0002EDD4FF0100C3AB1042139710021797191
:1054F000B971F9717868186100216FF300016FF3D9
:1055000041016FF382016FF3C501032363F3881137
:10551000CCF30A0C6CF353216FF31F5100230A489C
:1055200006F042F9AD462278094B1A7162785A7139
:10553000FFF7C0FE0C37BD46F0BD6FF00041BFE77E
:105540006FF01B0CCFE700BFCC140020480509000A
:10555000900800202DE9F04182B000AF0D461C46B6
:105560002E4B1B6803F00703022B49D91646084649
:10557000FBF722FC2A49FAF7EFFDFBF775FC04EB79
:1055800084046400E8468AB06B4613F110023FD0F1
:10559000142192B18C46042903DDDFF888E0C3F8BA
:1055A00014E0BCF1080F00DD9861BCF10C0F00DDC8
:1055B000DE61BCF1100F00DD1C6213292BDD142409
:1055C0003AB10521397100217971B971F9717868A1
:1055D000186100216FF300016FF341016FF3820145
:1055E0006FF3C501032363F38811C4F30A0464F362
:1055F00053216FF31F510023084806F0D5F8C54624
:10560000094B5D80FFF756FE0837BD46BDE8F081C7
:105610006FF00041BDE76FF01B04D1E7CC14002010
:105620000000A03F7005090090080020F0B589B087
:1056300002AF88B101685B4A116041685A4A116043
:1056400081685A4A1160C168594A11600169594A12
:1056500011604269584B1A60002010F0A5F804460A
:1056600018B120461C37BD46F0BD544815F0FCF972
:1056700063F009FC524800F0E3F80146002840D0EE
:10568000504B1B6813F0070FEBD06E4688B002AB8F
:1056900013F110022FD00C204AB10546042803DD77
:1056A000DFF824C1C3F814C0082D00DD99610B2870
:1056B00024DD0C253AB10321397000217970B970CD
:1056C000F9703868186100216FF300016FF3410130
:1056D0006FF382016FF3C501012363F38811C5F3F2
:1056E0000A0565F353216FF31F510023354806F077
:1056F0005BF8B546B5E76FF00040CDE76FF01B05EE
:10570000D8E73C1D314D0FCD0FC42B68236001231A
:1057100000932F4B02222F49381D10F0C7FF04467B
:1057200000289ED0274B1B6813F0070F99D06E46B8
:1057300088B002AB13F110022DD00C213AB108460B
:10574000042901DD244D5D61082800DD9C610B29E1
:1057500024DD0C253AB10321397000217970B9702C
:10576000F9703868186100216FF300016FF341018F
:105770006FF382016FF3C501012363F38811C5F351
:105780000A0565F353216FF31F5100230D4806F0FE
:105790000BF8B54665E76FF00041CFE76FF01B05EA
:1057A000D8E700BF2C4200202842002024420020DD
:1057B000204200201C4200201842002070080020D7
:1057C00068080020CC140020BC0509006CFB080010
:1057D0004C06090054060900F405090008B50A46FC
:1057E000034B1B8801460348006800F033F808BDEE
:1057F0008C08002030420020012914BF0021012123
:10580000014B1970704700BF5042002010B51C4674
:10581000BDF8083063B9084B5B683BB112F8011B57
:10582000064801704260621E82609847204610BDA3
:105830006FF00600FBE700BF484200203C4200201A
:1058400020B10168024A116043685360002070472C
:10585000484200202DE9F04383B000AF0E461446C5
:105860001D4628E06FF000413BE00B2947DD0C218D
:105870003AB10320387100207871B871F8717868F6
:1058800018616FF300086FF341086FF382086FF33C
:10589000C508012363F38818C1F30A0161F3532893
:1058A0006FF31F58002341463C4805F07DFFCD466D
:1058B0002E44641BA4B2A54224D22B46324638495A
:1058C00000205EF049FF0028F2DA344B1B6813F029
:1058D000070FEDD0E94688B06B4613F11002C1D036
:1058E0000C21002AC1D08C46042903DDDFF8B4E086
:1058F000C3F814E0BCF1080FB7DD9861B5E76FF0AD
:105900001B01B5E723463246254900205EF024FFFF
:10591000002804DB00200C37BD46BDE8F0831F4B98
:105920001B6813F0070FF5D06D4688B06B4613F176
:1059300010022DD00C213AB10C46042901DD194E7C
:105940005E61082C00DD98610B2924DD0C243AB13E
:105950000321397100217971B971F9717868186181
:1059600000216FF300016FF341016FF382016FF3C8
:10597000C501012363F38811C4F30A0464F35321BE
:105980006FF31F510023054805F00EFFAD46C1E738
:105990006FF00041CFE76FF01B04D8E7F41400204C
:1059A000A0060900640609000B4B5B7883B100B5C3
:1059B00083B001238DF800300368CDF80130052352
:1059C0006A46064900205EF0C7FE03B05DF804FB9E
:1059D0006FF00C00704700BF504200200407090020
:1059E0000A4B5B787BB100B583B003238DF804309C
:1059F0000288ADF8052001AA054900205EF0ACFE42
:105A000003B05DF804FB6FF00C00704750420020BB
:105A10000407090003460F4A527832B90E4A00685B
:105A200010609B8893800020704700B583B00222ED
:105A30008DF800200268CDF801208388ADF805308C
:105A400007236A46054900205EF086FE03B05DF834
:105A500004FB00BF5042002034420020040709002C
:105A600010B5012914BF00210121084B5970084BC2
:105A70005B8823B9074B1B6803B1984710BD044CE2
:105A80002046FFF7C7FF00236380F3E75042002062
:105A900034420020484200202C4B1B68002B54DD70
:105AA0002B4A126802F00702022A4AD9B0B582B026
:105AB00000AF1A46002B3BDBD1116C4688B06B4619
:105AC00013F1100237D00C2042B18446042801DDC6
:105AD000204D5D61BCF1080F00DD99610B282DDDC3
